{
  "contractName": "Elections",
  "abi": [
    {
      "constant": true,
      "inputs": [
        {
          "name": "",
          "type": "uint256"
        }
      ],
      "name": "voterEntry",
      "outputs": [
        {
          "name": "",
          "type": "bool"
        }
      ],
      "payable": false,
      "stateMutability": "view",
      "type": "function"
    },
    {
      "constant": true,
      "inputs": [
        {
          "name": "",
          "type": "uint256"
        }
      ],
      "name": "candidatesList",
      "outputs": [
        {
          "name": "candidateId",
          "type": "uint256"
        },
        {
          "name": "candidateVoteCount",
          "type": "uint256"
        }
      ],
      "payable": false,
      "stateMutability": "view",
      "type": "function"
    },
    {
      "constant": false,
      "inputs": [
        {
          "name": "username",
          "type": "string"
        },
        {
          "name": "password",
          "type": "string"
        }
      ],
      "name": "addAdmin",
      "outputs": [],
      "payable": false,
      "stateMutability": "nonpayable",
      "type": "function"
    },
    {
      "constant": true,
      "inputs": [
        {
          "name": "username",
          "type": "string"
        },
        {
          "name": "password",
          "type": "string"
        }
      ],
      "name": "verifyAdmin",
      "outputs": [
        {
          "name": "",
          "type": "bool"
        }
      ],
      "payable": false,
      "stateMutability": "view",
      "type": "function"
    },
    {
      "constant": false,
      "inputs": [
        {
          "name": "candidateId",
          "type": "uint256"
        }
      ],
      "name": "addCandidate",
      "outputs": [],
      "payable": false,
      "stateMutability": "nonpayable",
      "type": "function"
    },
    {
      "constant": false,
      "inputs": [
        {
          "name": "_candidateId",
          "type": "uint256"
        },
        {
          "name": "aadhaarNo",
          "type": "uint256"
        }
      ],
      "name": "vote",
      "outputs": [],
      "payable": false,
      "stateMutability": "nonpayable",
      "type": "function"
    },
    {
      "constant": true,
      "inputs": [
        {
          "name": "_candidateId",
          "type": "uint256"
        }
      ],
      "name": "returnVoteCount",
      "outputs": [
        {
          "name": "",
          "type": "uint256"
        }
      ],
      "payable": false,
      "stateMutability": "view",
      "type": "function"
    }
  ],
  "bytecode": "0x608060405234801561001057600080fd5b50610893806100206000396000f3fe608060405260043610610083576000357c0100000000000000000000000000000000000000000000000000000000900463ffffffff16806312b0f391146100885780631f459041146100db5780636fcf1c7d1461023a578063b384abef146103b1578063df2d5ec7146103f6578063df3a99631461044c578063e844d0971461049b575b600080fd5b34801561009457600080fd5b506100c1600480360360208110156100ab57600080fd5b81019080803590602001909291905050506104d6565b604051808215151515815260200191505060405180910390f35b3480156100e757600080fd5b50610238600480360360408110156100fe57600080fd5b810190808035906020019064010000000081111561011b57600080fd5b82018360208201111561012d57600080fd5b8035906020019184600183028401116401000000008311171561014f57600080fd5b91908080601f016020809104026020016040519081016040528093929190818152602001838380828437600081840152601f19601f820116905080830192505050505050509192919290803590602001906401000000008111156101b257600080fd5b8201836020820111156101c457600080fd5b803590602001918460018302840111640100000000831117156101e657600080fd5b91908080601f016020809104026020016040519081016040528093929190818152602001838380828437600081840152601f19601f8201169050808301925050505050505091929192905050506104f6565b005b34801561024657600080fd5b506103976004803603604081101561025d57600080fd5b810190808035906020019064010000000081111561027a57600080fd5b82018360208201111561028c57600080fd5b803590602001918460018302840111640100000000831117156102ae57600080fd5b91908080601f016020809104026020016040519081016040528093929190818152602001838380828437600081840152601f19601f8201169050808301925050505050505091929192908035906020019064010000000081111561031157600080fd5b82018360208201111561032357600080fd5b8035906020019184600183028401116401000000008311171561034557600080fd5b91908080601f016020809104026020016040519081016040528093929190818152602001838380828437600081840152601f19601f8201169050808301925050505050505091929192905050506105dd565b604051808215151515815260200191505060405180910390f35b3480156103bd57600080fd5b506103f4600480360360408110156103d457600080fd5b8101908080359060200190929190803590602001909291905050506106d3565b005b34801561040257600080fd5b5061042f6004803603602081101561041957600080fd5b81019080803590602001909291905050506107bc565b604051808381526020018281526020019250505060405180910390f35b34801561045857600080fd5b506104856004803603602081101561046f57600080fd5b81019080803590602001909291905050506107e0565b6040518082815260200191505060405180910390f35b3480156104a757600080fd5b506104d4600480360360208110156104be57600080fd5b81019080803590602001909291905050506107ff565b005b60016020528060005260406000206000915054906101000a900460ff1681565b806040516020018082805190602001908083835b60208310151561052f578051825260208201915060208101905060208303925061050a565b6001836020036101000a038019825116818451168082178552505050505050905001915050604051602081830303815290604052805190602001206002836040518082805190602001908083835b6020831015156105a2578051825260208201915060208101905060208303925061057d565b6001836020036101000a0380198251168184511680821785525050505050509050019150509081526020016040518091039020819055505050565b6000806002846040518082805190602001908083835b60208310151561061857805182526020820191506020810190506020830392506105f3565b6001836020036101000a03801982511681845116808217855250505050505090500191505090815260200160405180910390205490506000836040516020018082805190602001908083835b6020831015156106895780518252602082019150602081019050602083039250610664565b6001836020036101000a0380198251168184511680821785525050505050509050019150506040516020818303038152906040528051906020012090508082149250505092915050565b6001600082815260200190815260200160002060009054906101000a900460ff16151515610769576040517f08c379a000000000000000000000000000000000000000000000000000000000815260040180806020018281038252600f8152602001807f566f7465722068617320766f746564000000000000000000000000000000000081525060200191505060405180910390fd5b600180600083815260200190815260200160002060006101000a81548160ff0219169083151502179055506001600080848152602001908152602001600020600101600082825401925050819055505050565b60006020528060005260406000206000915090508060000154908060010154905082565b6000806000838152602001908152602001600020600101549050919050565b61080761084d565b6040805190810160405280838152602001600081525090508060008084815260200190815260200160002060008201518160000155602082015181600101559050505050565b60408051908101604052806000815260200160008152509056fea165627a7a723058208d1281c806c3bc588ff0fde5dc8f6c63bd445aedcb2d923444197c453622d8fa0029",
  "source": "pragma solidity ^0.5.0;\n\ncontract Elections {\n\n    struct Candidate {\n        uint candidateId;\n        uint candidateVoteCount;\n    }\n\n    mapping(uint => Candidate) public candidatesList;\n    mapping(uint256 => bool) public voterEntry;\n    mapping(string => bytes32) adminCredentials;\n\n    function addAdmin(string memory username, string memory password) public {\n        adminCredentials[username] = keccak256(abi.encodePacked(password));\n    }\n\n    function verifyAdmin(string memory username, string memory password) public view returns (bool)\n    {\n        bytes32 stored = adminCredentials[username];\n        bytes32 given = keccak256(abi.encodePacked(password));\n        return stored == given;\n    }\n\n    function addCandidate(uint256 candidateId) public {\n        Candidate memory ElectionCandidate = Candidate(candidateId, 0);\n        candidatesList[candidateId] = ElectionCandidate;\n    }\n\n    function vote(uint256 _candidateId, uint256 aadhaarNo) public {\n        require(!voterEntry[aadhaarNo], \"Voter has voted\");\n\n        voterEntry[aadhaarNo] = true;\n        candidatesList[_candidateId].candidateVoteCount += 1;\n    }\n\n    function returnVoteCount(uint256 _candidateId) public view returns(uint256) {\n        return candidatesList[_candidateId].candidateVoteCount;\n    }\n}",
  "sourcePath": "/home/rithvik/PESU/Codefundo/Round2/Codefundo_2019/contracts/Elections.sol",
  "compiler": {
    "name": "solc",
    "version": "0.5.0+commit.1d4f565a.Emscripten.clang"
  },
  "schemaVersion": "3.0.11",
  "updatedAt": "2020-02-07T19:35:25.788Z",
  "devdoc": {
    "methods": {}
  },
  "userdoc": {
    "methods": {}
  }
}