{
  "contractName": "IndianElection",
  "abi": [
    {
      "constant": true,
      "inputs": [
        {
          "name": "",
          "type": "uint256"
        },
        {
          "name": "",
          "type": "uint256"
        }
      ],
      "name": "candidatesInformation",
      "outputs": [
        {
          "name": "candidateId",
          "type": "uint256"
        },
        {
          "name": "candidateName",
          "type": "string"
        },
        {
          "name": "candidateVoteCount",
          "type": "uint256"
        }
      ],
      "payable": false,
      "stateMutability": "view",
      "type": "function"
    },
    {
      "constant": true,
      "inputs": [
        {
          "name": "",
          "type": "uint256"
        }
      ],
      "name": "voterEntry",
      "outputs": [
        {
          "name": "",
          "type": "bool"
        }
      ],
      "payable": false,
      "stateMutability": "view",
      "type": "function"
    },
    {
      "constant": true,
      "inputs": [],
      "name": "eligibleVoters",
      "outputs": [
        {
          "name": "",
          "type": "uint256"
        }
      ],
      "payable": false,
      "stateMutability": "view",
      "type": "function"
    },
    {
      "constant": true,
      "inputs": [
        {
          "name": "",
          "type": "uint256"
        }
      ],
      "name": "constituencyList",
      "outputs": [
        {
          "name": "constituencyId",
          "type": "uint256"
        },
        {
          "name": "constituencyName",
          "type": "string"
        },
        {
          "name": "candidateCount",
          "type": "uint256"
        }
      ],
      "payable": false,
      "stateMutability": "view",
      "type": "function"
    },
    {
      "constant": true,
      "inputs": [
        {
          "name": "",
          "type": "uint256"
        }
      ],
      "name": "voterList",
      "outputs": [
        {
          "name": "aadhaarNo",
          "type": "uint256"
        },
        {
          "name": "fingerPrint",
          "type": "uint256"
        },
        {
          "name": "retinaInfo",
          "type": "uint256"
        },
        {
          "name": "constituencyId",
          "type": "uint256"
        }
      ],
      "payable": false,
      "stateMutability": "view",
      "type": "function"
    },
    {
      "constant": true,
      "inputs": [],
      "name": "ResponseMessage",
      "outputs": [
        {
          "name": "",
          "type": "string"
        }
      ],
      "payable": false,
      "stateMutability": "view",
      "type": "function"
    },
    {
      "constant": true,
      "inputs": [],
      "name": "Responder",
      "outputs": [
        {
          "name": "",
          "type": "address"
        }
      ],
      "payable": false,
      "stateMutability": "view",
      "type": "function"
    },
    {
      "constant": true,
      "inputs": [],
      "name": "RequestMessage",
      "outputs": [
        {
          "name": "",
          "type": "string"
        }
      ],
      "payable": false,
      "stateMutability": "view",
      "type": "function"
    },
    {
      "constant": true,
      "inputs": [],
      "name": "State",
      "outputs": [
        {
          "name": "",
          "type": "uint8"
        }
      ],
      "payable": false,
      "stateMutability": "view",
      "type": "function"
    },
    {
      "constant": true,
      "inputs": [],
      "name": "Requestor",
      "outputs": [
        {
          "name": "",
          "type": "address"
        }
      ],
      "payable": false,
      "stateMutability": "view",
      "type": "function"
    },
    {
      "inputs": [],
      "payable": false,
      "stateMutability": "nonpayable",
      "type": "constructor"
    },
    {
      "anonymous": false,
      "inputs": [
        {
          "indexed": false,
          "name": "stateData",
          "type": "string"
        }
      ],
      "name": "StateChanged",
      "type": "event"
    },
    {
      "anonymous": false,
      "inputs": [
        {
          "indexed": false,
          "name": "consdata",
          "type": "string"
        }
      ],
      "name": "newConstitutency",
      "type": "event"
    },
    {
      "constant": false,
      "inputs": [
        {
          "name": "requestMessage",
          "type": "string"
        }
      ],
      "name": "SendRequest",
      "outputs": [],
      "payable": false,
      "stateMutability": "nonpayable",
      "type": "function"
    },
    {
      "constant": false,
      "inputs": [
        {
          "name": "responseMessage",
          "type": "string"
        }
      ],
      "name": "SendResponse",
      "outputs": [],
      "payable": false,
      "stateMutability": "nonpayable",
      "type": "function"
    },
    {
      "constant": true,
      "inputs": [],
      "name": "getMessage",
      "outputs": [
        {
          "name": "",
          "type": "string"
        }
      ],
      "payable": false,
      "stateMutability": "view",
      "type": "function"
    },
    {
      "constant": false,
      "inputs": [
        {
          "name": "constituencyId",
          "type": "uint256"
        },
        {
          "name": "constituencyName",
          "type": "string"
        },
        {
          "name": "candidateCount",
          "type": "uint256"
        }
      ],
      "name": "addConstituency",
      "outputs": [],
      "payable": false,
      "stateMutability": "nonpayable",
      "type": "function"
    },
    {
      "constant": false,
      "inputs": [
        {
          "name": "constituencyId",
          "type": "uint256"
        },
        {
          "name": "candidateId",
          "type": "uint256"
        },
        {
          "name": "candidateName",
          "type": "string"
        }
      ],
      "name": "addCandidate",
      "outputs": [],
      "payable": false,
      "stateMutability": "nonpayable",
      "type": "function"
    },
    {
      "constant": false,
      "inputs": [
        {
          "name": "aadhaarNo",
          "type": "uint256"
        },
        {
          "name": "fingerPrint",
          "type": "uint256"
        },
        {
          "name": "retinaInfo",
          "type": "uint256"
        },
        {
          "name": "constituencyId",
          "type": "uint256"
        }
      ],
      "name": "addVoterToList",
      "outputs": [],
      "payable": false,
      "stateMutability": "nonpayable",
      "type": "function"
    },
    {
      "constant": true,
      "inputs": [
        {
          "name": "aadhaarNo",
          "type": "uint256"
        },
        {
          "name": "fingerPrint",
          "type": "uint256"
        },
        {
          "name": "retinaInfo",
          "type": "uint256"
        },
        {
          "name": "constituencyId",
          "type": "uint256"
        }
      ],
      "name": "verifyVoter",
      "outputs": [
        {
          "name": "",
          "type": "bool"
        }
      ],
      "payable": false,
      "stateMutability": "view",
      "type": "function"
    },
    {
      "constant": false,
      "inputs": [
        {
          "name": "_candidateId",
          "type": "uint256"
        },
        {
          "name": "adhaarNo",
          "type": "uint256"
        },
        {
          "name": "constituencyId",
          "type": "uint256"
        }
      ],
      "name": "vote",
      "outputs": [],
      "payable": false,
      "stateMutability": "nonpayable",
      "type": "function"
    },
    {
      "constant": true,
      "inputs": [
        {
          "name": "_candidateId",
          "type": "uint256"
        },
        {
          "name": "constituencyId",
          "type": "uint256"
        }
      ],
      "name": "returnVoteCount",
      "outputs": [
        {
          "name": "",
          "type": "uint256"
        }
      ],
      "payable": false,
      "stateMutability": "view",
      "type": "function"
    }
  ],
  "bytecode": "0x60806040523480156200001157600080fd5b5033600060016101000a81548173ffffffffffffffffffffffffffffffffffffffff021916908373ffffffffffffffffffffffffffffffffffffffff1602179055506040805190810160405280600581526020017f48656c6c6f00000000000000000000000000000000000000000000000000000081525060029080519060200190620000a092919062000133565b5060008060006101000a81548160ff02191690836001811115620000c057fe5b02179055507f8fbf346523616c015d34c71713ea41bb98008282341b0f191f578d20d7ed26e26040518080602001828103825260078152602001807f526571756573740000000000000000000000000000000000000000000000000081525060200191505060405180910390a1620001e2565b828054600181600116156101000203166002900490600052602060002090601f016020900481019282601f106200017657805160ff1916838001178555620001a7565b82800160010185558215620001a7579182015b82811115620001a657825182559160200191906001019062000189565b5b509050620001b69190620001ba565b5090565b620001df91905b80821115620001db576000816000905550600101620001c1565b5090565b90565b61182880620001f26000396000f3fe608060405260043610610107576000357c0100000000000000000000000000000000000000000000000000000000900463ffffffff1680630fa731051461010c57806312b0f391146101d85780631e974c691461022b5780633fac35531461025657806345d38ef21461031857806350e2e8af146103715780635ab28ecb146103d55780637ee0e4ec14610465578063829c2d6d146105415780638a6655d614610609578063a7a1ba1514610658578063a958f1aa14610720578063ce6d41de146107fc578063d181ada11461088c578063d619f166146108e3578063e750e2da1461093c578063f05cad14146109cc578063f1b6dccd14610a3d578063fd05116c14610a76575b600080fd5b34801561011857600080fd5b5061014f6004803603604081101561012f57600080fd5b810190808035906020019092919080359060200190929190505050610acd565b6040518084815260200180602001838152602001828103825284818151815260200191508051906020019080838360005b8381101561019b578082015181840152602081019050610180565b50505050905090810190601f1680156101c85780820380516001836020036101000a031916815260200191505b5094505050505060405180910390f35b3480156101e457600080fd5b50610211600480360360208110156101fb57600080fd5b8101908080359060200190929190505050610bab565b604051808215151515815260200191505060405180910390f35b34801561023757600080fd5b50610240610bcb565b6040518082815260200191505060405180910390f35b34801561026257600080fd5b5061028f6004803603602081101561027957600080fd5b8101908080359060200190929190505050610bd1565b6040518084815260200180602001838152602001828103825284818151815260200191508051906020019080838360005b838110156102db5780820151818401526020810190506102c0565b50505050905090810190601f1680156103085780820380516001836020036101000a031916815260200191505b5094505050505060405180910390f35b34801561032457600080fd5b5061036f6004803603608081101561033b57600080fd5b8101908080359060200190929190803590602001909291908035906020019092919080359060200190929190505050610c93565b005b34801561037d57600080fd5b506103aa6004803603602081101561039457600080fd5b8101908080359060200190929190505050610d36565b6040518085815260200184815260200183815260200182815260200194505050505060405180910390f35b3480156103e157600080fd5b506103ea610d66565b6040518080602001828103825283818151815260200191508051906020019080838360005b8381101561042a57808201518184015260208101905061040f565b50505050905090810190601f1680156104575780820380516001836020036101000a031916815260200191505b509250505060405180910390f35b34801561047157600080fd5b5061053f6004803603606081101561048857600080fd5b8101908080359060200190929190803590602001906401000000008111156104af57600080fd5b8201836020820111156104c157600080fd5b803590602001918460018302840111640100000000831117156104e357600080fd5b91908080601f016020809104026020016040519081016040528093929190818152602001838380828437600081840152601f19601f82011690508083019250505050505050919291929080359060200190929190505050610e04565b005b34801561054d57600080fd5b506106076004803603602081101561056457600080fd5b810190808035906020019064010000000081111561058157600080fd5b82018360208201111561059357600080fd5b803590602001918460018302840111640100000000831117156105b557600080fd5b91908080601f016020809104026020016040519081016040528093929190818152602001838380828437600081840152601f19601f820116905080830192505050505050509192919290505050610f08565b005b34801561061557600080fd5b506106566004803603606081101561062c57600080fd5b81019080803590602001909291908035906020019092919080359060200190929190505050610fee565b005b34801561066457600080fd5b5061071e6004803603602081101561067b57600080fd5b810190808035906020019064010000000081111561069857600080fd5b8201836020820111156106aa57600080fd5b803590602001918460018302840111640100000000831117156106cc57600080fd5b91908080601f016020809104026020016040519081016040528093929190818152602001838380828437600081840152601f19601f82011690508083019250505050505050919291929050505061108c565b005b34801561072c57600080fd5b506107fa6004803603606081101561074357600080fd5b8101908080359060200190929190803590602001909291908035906020019064010000000081111561077457600080fd5b82018360208201111561078657600080fd5b803590602001918460018302840111640100000000831117156107a857600080fd5b91908080601f016020809104026020016040519081016040528093929190818152602001838380828437600081840152601f19601f82011690508083019250505050505050919291929050505061118e565b005b34801561080857600080fd5b50610811611253565b6040518080602001828103825283818151815260200191508051906020019080838360005b83811015610851578082015181840152602081019050610836565b50505050905090810190601f16801561087e5780820380516001836020036101000a031916815260200191505b509250505060405180910390f35b34801561089857600080fd5b506108a16113c5565b604051808273ffffffffffffffffffffffffffffffffffffffff1673ffffffffffffffffffffffffffffffffffffffff16815260200191505060405180910390f35b3480156108ef57600080fd5b506109266004803603604081101561090657600080fd5b8101908080359060200190929190803590602001909291905050506113eb565b6040518082815260200191505060405180910390f35b34801561094857600080fd5b50610951611427565b6040518080602001828103825283818151815260200191508051906020019080838360005b83811015610991578082015181840152602081019050610976565b50505050905090810190601f1680156109be5780820380516001836020036101000a031916815260200191505b509250505060405180910390f35b3480156109d857600080fd5b50610a23600480360360808110156109ef57600080fd5b81019080803590602001909291908035906020019092919080359060200190929190803590602001909291905050506114c5565b604051808215151515815260200191505060405180910390f35b348015610a4957600080fd5b50610a52611654565b60405180826001811115610a6257fe5b60ff16815260200191505060405180910390f35b348015610a8257600080fd5b50610a8b611666565b604051808273ffffffffffffffffffffffffffffffffffffffff1673ffffffffffffffffffffffffffffffffffffffff16815260200191505060405180910390f35b600860205281600052604060002081815481101515610ae857fe5b906000526020600020906003020160009150915050806000015490806001018054600181600116156101000203166002900480601f016020809104026020016040519081016040528092919081815260200182805460018160011615610100020316600290048015610b9b5780601f10610b7057610100808354040283529160200191610b9b565b820191906000526020600020905b815481529060010190602001808311610b7e57829003601f168201915b5050505050908060020154905083565b60066020528060005260406000206000915054906101000a900460ff1681565b60055481565b6007602052806000526040600020600091509050806000015490806001018054600181600116156101000203166002900480601f016020809104026020016040519081016040528092919081815260200182805460018160011615610100020316600290048015610c835780601f10610c5857610100808354040283529160200191610c83565b820191906000526020600020905b815481529060010190602001808311610c6657829003601f168201915b5050505050908060020154905083565b60006006600086815260200190815260200160002060006101000a81548160ff021916908315150217905550608060405190810160405280858152602001848152602001838152602001828152506004600086815260200190815260200160002060008201518160000155602082015181600101556040820151816002015560608201518160030155905050600160056000828254019250508190555050505050565b60046020528060005260406000206000915090508060000154908060010154908060020154908060030154905084565b60038054600181600116156101000203166002900480601f016020809104026020016040519081016040528092919081815260200182805460018160011615610100020316600290048015610dfc5780601f10610dd157610100808354040283529160200191610dfc565b820191906000526020600020905b815481529060010190602001808311610ddf57829003601f168201915b505050505081565b6060604051908101604052808481526020018381526020018281525060076000858152602001908152602001600020600082015181600001556020820151816001019080519060200190610e5992919061168c565b50604082015181600201559050507fe1895770fef2e569f3fd3f6e1aa7bb7b667bcf277e6c83575b7e63ab37382d65826040518080602001828103825283818151815260200191508051906020019080838360005b83811015610ec9578082015181840152602081019050610eae565b50505050905090810190601f168015610ef65780820380516001836020036101000a031916815260200191505b509250505060405180910390a1505050565b33600160006101000a81548173ffffffffffffffffffffffffffffffffffffffff021916908373ffffffffffffffffffffffffffffffffffffffff1602179055508060039080519060200190610f5f92919061170c565b5060016000806101000a81548160ff02191690836001811115610f7e57fe5b02179055507f8fbf346523616c015d34c71713ea41bb98008282341b0f191f578d20d7ed26e26040518080602001828103825260088152602001807f526573706f6e736500000000000000000000000000000000000000000000000081525060200191505060405180910390a150565b6006600083815260200190815260200160002060009054906101000a900460ff1615151561101b57600080fd5b60016006600084815260200190815260200160002060006101000a81548160ff0219169083151502179055506001600860008381526020019081526020016000208481548110151561106957fe5b906000526020600020906003020160020160008282540192505081905550505050565b3373ffffffffffffffffffffffffffffffffffffffff16600060019054906101000a900473ffffffffffffffffffffffffffffffffffffffff1673ffffffffffffffffffffffffffffffffffffffff16141515611151576040517f08c379a00000000000000000000000000000000000000000000000000000000081526004018080602001828103825260058152602001807f4572726f7200000000000000000000000000000000000000000000000000000081525060200191505060405180910390fd5b806002908051906020019061116792919061170c565b5060008060006101000a81548160ff0219169083600181111561118657fe5b021790555050565b61119661178c565b6060604051908101604052808481526020018381526020016000815250905060086000858152602001908152602001600020819080600181540180825580915050906001820390600052602060002090600302016000909192909190915060008201518160000155602082015181600101908051906020019061121a92919061168c565b50604082015181600201555050506001600760008681526020019081526020016000206002016000828254019250508190555050505050565b60606000600181111561126257fe5b6000809054906101000a900460ff16600181111561127c57fe5b14156113245760028054600181600116156101000203166002900480601f0160208091040260200160405190810160405280929190818152602001828054600181600116156101000203166002900480156113185780601f106112ed57610100808354040283529160200191611318565b820191906000526020600020905b8154815290600101906020018083116112fb57829003601f168201915b505050505090506113c2565b60038054600181600116156101000203166002900480601f0160208091040260200160405190810160405280929190818152602001828054600181600116156101000203166002900480156113ba5780601f1061138f576101008083540402835291602001916113ba565b820191906000526020600020905b81548152906001019060200180831161139d57829003601f168201915b505050505090505b90565b600160009054906101000a900473ffffffffffffffffffffffffffffffffffffffff1681565b6000600860008381526020019081526020016000208381548110151561140d57fe5b906000526020600020906003020160020154905092915050565b60028054600181600116156101000203166002900480601f0160208091040260200160405190810160405280929190818152602001828054600181600116156101000203166002900480156114bd5780601f10611492576101008083540402835291602001916114bd565b820191906000526020600020905b8154815290600101906020018083116114a057829003601f168201915b505050505081565b60006006600086815260200190815260200160002060009054906101000a900460ff1615151561155d576040517f08c379a00000000000000000000000000000000000000000000000000000000081526004018080602001828103825260058152602001807f4572726f7200000000000000000000000000000000000000000000000000000081525060200191505060405180910390fd5b6115656117ae565b600460008781526020019081526020016000206080604051908101604052908160008201548152602001600182015481526020016002820154815260200160038201548152505090506000816000015182602001518360400151846060015160405160200180858152602001848152602001838152602001828152602001945050505050604051602081830303815290604052805190602001209050600087878787604051602001808581526020018481526020018381526020018281526020019450505050506040516020818303038152906040528051906020012090508082149350505050949350505050565b6000809054906101000a900460ff1681565b600060019054906101000a900473ffffffffffffffffffffffffffffffffffffffff1681565b828054600181600116156101000203166002900490600052602060002090601f016020900481019282601f106116cd57805160ff19168380011785556116fb565b828001600101855582156116fb579182015b828111156116fa5782518255916020019190600101906116df565b5b50905061170891906117d7565b5090565b828054600181600116156101000203166002900490600052602060002090601f016020900481019282601f1061174d57805160ff191683800117855561177b565b8280016001018555821561177b579182015b8281111561177a57825182559160200191906001019061175f565b5b50905061178891906117d7565b5090565b6060604051908101604052806000815260200160608152602001600081525090565b608060405190810160405280600081526020016000815260200160008152602001600081525090565b6117f991905b808211156117f55760008160009055506001016117dd565b5090565b9056fea165627a7a7230582080fb86b2ced39343015f2422703e7e04cd7cc7183934e344bbc2fa9f4d39b21d0029",
  "source": "pragma solidity ^0.5.0;\n\n\ncontract IndianElection{\n\n    //Set of States\n    enum StateType { Request, Respond}\n\n    //List of properties\n    StateType public  State;\n    address public  Requestor;\n    address public  Responder;\n\n    string public RequestMessage;\n    string public ResponseMessage;\n\n    event StateChanged(string stateData);\n    event newConstitutency(string consdata);\n    // Voters DigitalId\n\n    struct DigitalId{\n        uint aadhaarNo;\n        uint fingerPrint;\n        uint retinaInfo;\n        uint constituencyId;\n    }\n\n    // Candidate Model\n\n    struct Candidate {\n        uint candidateId;\n        string candidateName;\n        uint candidateVoteCount;\n    }\n\n    // Voter List\n    mapping(uint => DigitalId) public voterList;\n    uint public eligibleVoters;\n\n    // Mapping to store voters who have voted (adhaar to boolean)\n    // This is for all constituencies(entire country)\n    mapping(uint => bool) public voterEntry;\n\n    // Constituency model\n\n    struct Constituency {\n        uint constituencyId;\n        string constituencyName;\n        uint candidateCount;\n        \n    }\n\n    mapping(uint => Constituency) public constituencyList;\n    // ConstituencyId -> Candidates Array\n    mapping(uint => Candidate[]) public candidatesInformation;\n    // constructor function\n    constructor() public\n    {\n        Requestor = msg.sender;\n        RequestMessage = \"Hello\";\n        State = StateType.Request;\n        //addConstituency(1,\"Indiranagar\",0);\n        //addCandidate(1,0,\"Virat Kholi\");\n        emit StateChanged('Request');\n    }\n\n    // call this function to send a request\n    function SendRequest(string memory requestMessage) public\n    {\n        if (Requestor != msg.sender)\n        {\n            revert(\"Error\");\n        }\n\n        RequestMessage = requestMessage;\n        State = StateType.Request;\n    }\n\n    // call this function to send a response\n    function SendResponse(string memory responseMessage) public\n    {\n        Responder = msg.sender;\n\n        // call ContractUpdated() to record this action\n        ResponseMessage = responseMessage;\n        State = StateType.Respond;\n\n        emit StateChanged('Response');\n    }\n\n    function getMessage() public view returns (string memory)\n    {\n        if (State == StateType.Request)\n            return RequestMessage;\n        else\n            return ResponseMessage;\n    }\n\n    // Step 1 : adding all existing constituencies with candidates info\n    function addConstituency(uint constituencyId, string memory constituencyName, uint candidateCount) public\n    {\n        \n        constituencyList[constituencyId] = Constituency(constituencyId, constituencyName, candidateCount);\n        emit newConstitutency(constituencyName);\n\n    }\n\n    // Step 2 : adding candidates to constituencies \n    function addCandidate(uint constituencyId,uint candidateId,string memory candidateName) public\n    {\n        Candidate memory ElectionCandidate = Candidate(candidateId,candidateName,0);\n        candidatesInformation[constituencyId].push(ElectionCandidate);\n        constituencyList[constituencyId].candidateCount += 1;\n    }\n    \n\n    // Step 3 : initialize the voting list\n    function addVoterToList(uint aadhaarNo,uint fingerPrint,uint retinaInfo, uint constituencyId) public\n    {\n        voterEntry[aadhaarNo] = false;\n        voterList[aadhaarNo] = DigitalId(aadhaarNo, fingerPrint, retinaInfo, constituencyId);\n        eligibleVoters += 1;\n    }\n\n    // Step 4 : Verify the details of the voter\n    function verifyVoter(uint aadhaarNo,uint fingerPrint,uint retinaInfo, uint constituencyId) public view returns (bool)\n    {\n        // Voter has not voted before\n        require(!voterEntry[aadhaarNo], \"Error\");\n        DigitalId memory temp = voterList[aadhaarNo];\n        // Comparision through keccak256() instead of iterating to save time and gas cost\n\n        bytes32 b1 = keccak256(abi.encodePacked(temp.aadhaarNo, temp.fingerPrint, temp.retinaInfo, temp.constituencyId));\n        bytes32 b2 = keccak256(abi.encodePacked(aadhaarNo, fingerPrint, retinaInfo, constituencyId));\n\n        return b1 == b2;\n        // Iterate through the eligle voter info and check if there is a match\n    }\n\n    // Step 5 : Vote for a candidate\n    function vote(uint _candidateId, uint adhaarNo, uint constituencyId) public\n    {\n        require(!voterEntry[adhaarNo]);\n        \n        // Mark the user has now voted\n        voterEntry[adhaarNo] = true;\n\n        // Increment the vote count for the candidate chosen\n       candidatesInformation[constituencyId][_candidateId].candidateVoteCount += 1;\n    }\n\n    function returnVoteCount(uint _candidateId, uint constituencyId) public view returns (uint)\n    {\n        return candidatesInformation[constituencyId][_candidateId].candidateVoteCount ;\n    }\n\n}",
  "sourcePath": "/home/rithvik/PESU/Codefundo/HelloBlockchain1/contracts/IndianElection.sol",
  "compiler": {
    "name": "solc",
    "version": "0.5.0+commit.1d4f565a.Emscripten.clang"
  },
  "schemaVersion": "3.0.11",
  "updatedAt": "2019-08-18T16:32:06.718Z",
  "devdoc": {
    "methods": {}
  },
  "userdoc": {
    "methods": {}
  }
}