{
  "contractName": "IndianElection",
  "abi": [
    {
      "constant": true,
      "inputs": [
        {
          "name": "",
          "type": "uint256"
        },
        {
          "name": "",
          "type": "uint256"
        }
      ],
      "name": "candidatesInformation",
      "outputs": [
        {
          "name": "candidateId",
          "type": "uint256"
        },
        {
          "name": "candidateName",
          "type": "string"
        },
        {
          "name": "candidateVoteCount",
          "type": "uint256"
        }
      ],
      "payable": false,
      "stateMutability": "view",
      "type": "function"
    },
    {
      "constant": true,
      "inputs": [
        {
          "name": "",
          "type": "uint256"
        }
      ],
      "name": "voterEntry",
      "outputs": [
        {
          "name": "",
          "type": "bool"
        }
      ],
      "payable": false,
      "stateMutability": "view",
      "type": "function"
    },
    {
      "constant": true,
      "inputs": [],
      "name": "eligibleVoters",
      "outputs": [
        {
          "name": "",
          "type": "uint256"
        }
      ],
      "payable": false,
      "stateMutability": "view",
      "type": "function"
    },
    {
      "constant": true,
      "inputs": [
        {
          "name": "",
          "type": "uint256"
        }
      ],
      "name": "constituencyList",
      "outputs": [
        {
          "name": "constituencyId",
          "type": "uint256"
        },
        {
          "name": "constituencyName",
          "type": "string"
        },
        {
          "name": "candidateCount",
          "type": "uint256"
        }
      ],
      "payable": false,
      "stateMutability": "view",
      "type": "function"
    },
    {
      "constant": true,
      "inputs": [
        {
          "name": "",
          "type": "uint256"
        }
      ],
      "name": "voterList",
      "outputs": [
        {
          "name": "aadhaarNo",
          "type": "uint256"
        },
        {
          "name": "fingerPrint",
          "type": "string"
        },
        {
          "name": "retinaInfo",
          "type": "string"
        },
        {
          "name": "constituencyId",
          "type": "uint256"
        }
      ],
      "payable": false,
      "stateMutability": "view",
      "type": "function"
    },
    {
      "constant": true,
      "inputs": [],
      "name": "ResponseMessage",
      "outputs": [
        {
          "name": "",
          "type": "string"
        }
      ],
      "payable": false,
      "stateMutability": "view",
      "type": "function"
    },
    {
      "constant": true,
      "inputs": [],
      "name": "Responder",
      "outputs": [
        {
          "name": "",
          "type": "address"
        }
      ],
      "payable": false,
      "stateMutability": "view",
      "type": "function"
    },
    {
      "constant": true,
      "inputs": [],
      "name": "RequestMessage",
      "outputs": [
        {
          "name": "",
          "type": "string"
        }
      ],
      "payable": false,
      "stateMutability": "view",
      "type": "function"
    },
    {
      "constant": true,
      "inputs": [],
      "name": "State",
      "outputs": [
        {
          "name": "",
          "type": "uint8"
        }
      ],
      "payable": false,
      "stateMutability": "view",
      "type": "function"
    },
    {
      "constant": true,
      "inputs": [],
      "name": "Requestor",
      "outputs": [
        {
          "name": "",
          "type": "address"
        }
      ],
      "payable": false,
      "stateMutability": "view",
      "type": "function"
    },
    {
      "inputs": [],
      "payable": false,
      "stateMutability": "nonpayable",
      "type": "constructor"
    },
    {
      "anonymous": false,
      "inputs": [
        {
          "indexed": false,
          "name": "stateData",
          "type": "string"
        }
      ],
      "name": "StateChanged",
      "type": "event"
    },
    {
      "constant": false,
      "inputs": [
        {
          "name": "requestMessage",
          "type": "string"
        }
      ],
      "name": "SendRequest",
      "outputs": [],
      "payable": false,
      "stateMutability": "nonpayable",
      "type": "function"
    },
    {
      "constant": false,
      "inputs": [
        {
          "name": "responseMessage",
          "type": "string"
        }
      ],
      "name": "SendResponse",
      "outputs": [],
      "payable": false,
      "stateMutability": "nonpayable",
      "type": "function"
    },
    {
      "constant": true,
      "inputs": [],
      "name": "getMessage",
      "outputs": [
        {
          "name": "",
          "type": "string"
        }
      ],
      "payable": false,
      "stateMutability": "view",
      "type": "function"
    },
    {
      "constant": false,
      "inputs": [
        {
          "name": "constituencyId",
          "type": "uint256"
        },
        {
          "name": "constituencyName",
          "type": "string"
        },
        {
          "name": "candidateCount",
          "type": "uint256"
        }
      ],
      "name": "addConstituency",
      "outputs": [],
      "payable": false,
      "stateMutability": "nonpayable",
      "type": "function"
    },
    {
      "constant": false,
      "inputs": [
        {
          "name": "constituencyId",
          "type": "uint256"
        },
        {
          "name": "candidateId",
          "type": "uint256"
        },
        {
          "name": "candidateName",
          "type": "string"
        }
      ],
      "name": "addCandidate",
      "outputs": [],
      "payable": false,
      "stateMutability": "nonpayable",
      "type": "function"
    },
    {
      "constant": true,
      "inputs": [
        {
          "name": "constituencyId",
          "type": "uint256"
        },
        {
          "name": "candidateId",
          "type": "uint256"
        }
      ],
      "name": "returnCandidateInfo",
      "outputs": [
        {
          "components": [
            {
              "name": "candidateId",
              "type": "uint256"
            },
            {
              "name": "candidateName",
              "type": "string"
            },
            {
              "name": "candidateVoteCount",
              "type": "uint256"
            }
          ],
          "name": "",
          "type": "tuple"
        }
      ],
      "payable": false,
      "stateMutability": "view",
      "type": "function"
    },
    {
      "constant": true,
      "inputs": [
        {
          "name": "constituencyId",
          "type": "uint256"
        }
      ],
      "name": "returnContituencyInfo",
      "outputs": [
        {
          "components": [
            {
              "name": "constituencyId",
              "type": "uint256"
            },
            {
              "name": "constituencyName",
              "type": "string"
            },
            {
              "name": "candidateCount",
              "type": "uint256"
            }
          ],
          "name": "",
          "type": "tuple"
        }
      ],
      "payable": false,
      "stateMutability": "view",
      "type": "function"
    },
    {
      "constant": false,
      "inputs": [
        {
          "name": "aadhaarNo",
          "type": "uint256"
        },
        {
          "name": "fingerPrint",
          "type": "string"
        },
        {
          "name": "retinaInfo",
          "type": "string"
        },
        {
          "name": "constituencyId",
          "type": "uint256"
        }
      ],
      "name": "addVoterToList",
      "outputs": [],
      "payable": false,
      "stateMutability": "nonpayable",
      "type": "function"
    },
    {
      "constant": true,
      "inputs": [
        {
          "name": "aadhaarNo",
          "type": "uint256"
        },
        {
          "name": "fingerPrint",
          "type": "string"
        },
        {
          "name": "retinaInfo",
          "type": "string"
        },
        {
          "name": "constituencyId",
          "type": "uint256"
        }
      ],
      "name": "verifyVoter",
      "outputs": [
        {
          "name": "",
          "type": "bool"
        }
      ],
      "payable": false,
      "stateMutability": "view",
      "type": "function"
    },
    {
      "constant": false,
      "inputs": [
        {
          "name": "_candidateId",
          "type": "uint256"
        },
        {
          "name": "adhaarNo",
          "type": "uint256"
        },
        {
          "name": "constituencyId",
          "type": "uint256"
        }
      ],
      "name": "vote",
      "outputs": [],
      "payable": false,
      "stateMutability": "nonpayable",
      "type": "function"
    },
    {
      "constant": true,
      "inputs": [
        {
          "name": "_candidateId",
          "type": "uint256"
        },
        {
          "name": "constituencyId",
          "type": "uint256"
        }
      ],
      "name": "returnVoteCount",
      "outputs": [
        {
          "name": "",
          "type": "uint256"
        }
      ],
      "payable": false,
      "stateMutability": "view",
      "type": "function"
    }
  ],
  "bytecode": "0x60806040523480156200001157600080fd5b5033600060016101000a81548173ffffffffffffffffffffffffffffffffffffffff021916908373ffffffffffffffffffffffffffffffffffffffff1602179055506040518060400160405280600581526020017f48656c6c6f00000000000000000000000000000000000000000000000000000081525060029080519060200190620000a092919062000102565b5060008060006101000a81548160ff02191690836001811115620000c057fe5b02179055507f8fbf346523616c015d34c71713ea41bb98008282341b0f191f578d20d7ed26e2604051620000f490620001f3565b60405180910390a162000226565b828054600181600116156101000203166002900490600052602060002090601f016020900481019282601f106200014557805160ff191683800117855562000176565b8280016001018555821562000176579182015b828111156200017557825182559160200191906001019062000158565b5b50905062000185919062000189565b5090565b620001ae91905b80821115620001aa57600081600090555060010162000190565b5090565b90565b6000620001c060078362000215565b91507f52657175657374000000000000000000000000000000000000000000000000006000830152602082019050919050565b600060208201905081810360008301526200020e81620001b1565b9050919050565b600082825260208201905092915050565b611deb80620002366000396000f3fe608060405234801561001057600080fd5b50600436106101375760003560e01c80638a6655d6116100b8578063d181ada11161007c578063d181ada114610365578063d619f16614610383578063de423afe146103b3578063e750e2da146103e3578063f1b6dccd14610401578063fd05116c1461041f57610137565b80638a6655d6146102c35780638e18f70e146102df578063a7a1ba151461030f578063a958f1aa1461032b578063ce6d41de1461034757610137565b806350e2e8af116100ff57806350e2e8af1461020a5780635ab28ecb1461023d57806363e45c411461025b5780637ee0e4ec1461028b578063829c2d6d146102a757610137565b80630fa731051461013c57806312b0f3911461016e5780631e974c691461019e578063386e800f146101bc5780633fac3553146101d8575b600080fd5b61015660048036036101519190810190611655565b61043d565b60405161016593929190611be9565b60405180910390f35b61018860048036036101839190810190611532565b610519565b6040516101959190611a7d565b60405180910390f35b6101a6610539565b6040516101b39190611b7b565b60405180910390f35b6101d660048036036101d1919081019061155b565b61053f565b005b6101f260048036036101ed9190810190611532565b610607565b60405161020193929190611be9565b60405180910390f35b610224600480360361021f9190810190611532565b6106c9565b6040516102349493929190611b96565b60405180910390f35b610245610829565b6040516102529190611ab3565b60405180910390f35b61027560048036036102709190810190611655565b6108c7565b6040516102829190611b37565b60405180910390f35b6102a560048036036102a091908101906115ee565b6109c4565b005b6102c160048036036102bc91908101906114f1565b610a2b565b005b6102dd60048036036102d891908101906116f8565b610ade565b005b6102f960048036036102f49190810190611532565b610b78565b6040516103069190611b59565b60405180910390f35b610329600480360361032491908101906114f1565b610c5b565b005b61034560048036036103409190810190611691565b610d28565b005b61034f610dec565b60405161035c9190611ad5565b60405180910390f35b61036d610f5e565b60405161037a9190611a62565b60405180910390f35b61039d60048036036103989190810190611655565b610f84565b6040516103aa9190611b7b565b60405180910390f35b6103cd60048036036103c8919081019061155b565b610fbe565b6040516103da9190611a7d565b60405180910390f35b6103eb611223565b6040516103f89190611ab3565b60405180910390f35b6104096112c1565b6040516104169190611a98565b60405180910390f35b6104276112d3565b6040516104349190611a62565b60405180910390f35b6008602052816000526040600020818154811061045657fe5b906000526020600020906003020160009150915050806000015490806001018054600181600116156101000203166002900480601f0160208091040260200160405190810160405280929190818152602001828054600181600116156101000203166002900480156105095780601f106104de57610100808354040283529160200191610509565b820191906000526020600020905b8154815290600101906020018083116104ec57829003601f168201915b5050505050908060020154905083565b60066020528060005260406000206000915054906101000a900460ff1681565b60055481565b60006006600086815260200190815260200160002060006101000a81548160ff021916908315150217905550604051806080016040528085815260200184815260200183815260200182815250600460008681526020019081526020016000206000820151816000015560208201518160010190805190602001906105c59291906112f9565b5060408201518160020190805190602001906105e29291906112f9565b5060608201518160030155905050600160056000828254019250508190555050505050565b6007602052806000526040600020600091509050806000015490806001018054600181600116156101000203166002900480601f0160208091040260200160405190810160405280929190818152602001828054600181600116156101000203166002900480156106b95780601f1061068e576101008083540402835291602001916106b9565b820191906000526020600020905b81548152906001019060200180831161069c57829003601f168201915b5050505050908060020154905083565b6004602052806000526040600020600091509050806000015490806001018054600181600116156101000203166002900480601f01602080910402602001604051908101604052809291908181526020018280546001816001161561010002031660029004801561077b5780601f106107505761010080835404028352916020019161077b565b820191906000526020600020905b81548152906001019060200180831161075e57829003601f168201915b505050505090806002018054600181600116156101000203166002900480601f0160208091040260200160405190810160405280929190818152602001828054600181600116156101000203166002900480156108195780601f106107ee57610100808354040283529160200191610819565b820191906000526020600020905b8154815290600101906020018083116107fc57829003601f168201915b5050505050908060030154905084565b60038054600181600116156101000203166002900480601f0160208091040260200160405190810160405280929190818152602001828054600181600116156101000203166002900480156108bf5780601f10610894576101008083540402835291602001916108bf565b820191906000526020600020905b8154815290600101906020018083116108a257829003601f168201915b505050505081565b6108cf611379565b6008600084815260200190815260200160002082815481106108ed57fe5b906000526020600020906003020160405180606001604052908160008201548152602001600182018054600181600116156101000203166002900480601f0160208091040260200160405190810160405280929190818152602001828054600181600116156101000203166002900480156109a95780601f1061097e576101008083540402835291602001916109a9565b820191906000526020600020905b81548152906001019060200180831161098c57829003601f168201915b50505050508152602001600282015481525050905092915050565b60405180606001604052808481526020018381526020018281525060076000858152602001908152602001600020600082015181600001556020820151816001019080519060200190610a189291906112f9565b5060408201518160020155905050505050565b33600160006101000a81548173ffffffffffffffffffffffffffffffffffffffff021916908373ffffffffffffffffffffffffffffffffffffffff1602179055508060039080519060200190610a8292919061139a565b5060016000806101000a81548160ff02191690836001811115610aa157fe5b02179055507f8fbf346523616c015d34c71713ea41bb98008282341b0f191f578d20d7ed26e2604051610ad390611af7565b60405180910390a150565b6006600083815260200190815260200160002060009054906101000a900460ff1615610b0957600080fd5b60016006600084815260200190815260200160002060006101000a81548160ff0219169083151502179055506001600860008381526020019081526020016000208481548110610b5557fe5b906000526020600020906003020160020160008282540192505081905550505050565b610b8061141a565b6007600083815260200190815260200160002060405180606001604052908160008201548152602001600182018054600181600116156101000203166002900480601f016020809104026020016040519081016040528092919081815260200182805460018160011615610100020316600290048015610c415780601f10610c1657610100808354040283529160200191610c41565b820191906000526020600020905b815481529060010190602001808311610c2457829003601f168201915b505050505081526020016002820154815250509050919050565b3373ffffffffffffffffffffffffffffffffffffffff16600060019054906101000a900473ffffffffffffffffffffffffffffffffffffffff1673ffffffffffffffffffffffffffffffffffffffff1614610ceb576040517f08c379a0000000000000000000000000000000000000000000000000000000008152600401610ce290611b17565b60405180910390fd5b8060029080519060200190610d0192919061139a565b5060008060006101000a81548160ff02191690836001811115610d2057fe5b021790555050565b610d30611379565b604051806060016040528084815260200183815260200160008152509050600860008581526020019081526020016000208190806001815401808255809150509060018203906000526020600020906003020160009091929091909150600082015181600001556020820151816001019080519060200190610db39291906112f9565b50604082015181600201555050506001600760008681526020019081526020016000206002016000828254019250508190555050505050565b606060006001811115610dfb57fe5b6000809054906101000a900460ff166001811115610e1557fe5b1415610ebd5760028054600181600116156101000203166002900480601f016020809104026020016040519081016040528092919081815260200182805460018160011615610100020316600290048015610eb15780601f10610e8657610100808354040283529160200191610eb1565b820191906000526020600020905b815481529060010190602001808311610e9457829003601f168201915b50505050509050610f5b565b60038054600181600116156101000203166002900480601f016020809104026020016040519081016040528092919081815260200182805460018160011615610100020316600290048015610f535780601f10610f2857610100808354040283529160200191610f53565b820191906000526020600020905b815481529060010190602001808311610f3657829003601f168201915b505050505090505b90565b600160009054906101000a900473ffffffffffffffffffffffffffffffffffffffff1681565b6000600860008381526020019081526020016000208381548110610fa457fe5b906000526020600020906003020160020154905092915050565b60006006600086815260200190815260200160002060009054906101000a900460ff1615611021576040517f08c379a000000000000000000000000000000000000000000000000000000000815260040161101890611b17565b60405180910390fd5b61102961143b565b6004600087815260200190815260200160002060405180608001604052908160008201548152602001600182018054600181600116156101000203166002900480601f0160208091040260200160405190810160405280929190818152602001828054600181600116156101000203166002900480156110ea5780601f106110bf576101008083540402835291602001916110ea565b820191906000526020600020905b8154815290600101906020018083116110cd57829003601f168201915b50505050508152602001600282018054600181600116156101000203166002900480601f01602080910402602001604051908101604052809291908181526020018280546001816001161561010002031660029004801561118c5780601f106111615761010080835404028352916020019161118c565b820191906000526020600020905b81548152906001019060200180831161116f57829003601f168201915b505050505081526020016003820154815250509050600081600001518260200151836040015184606001516040516020016111ca9493929190611a1c565b6040516020818303038152906040528051906020012090506000878787876040516020016111fb94939291906119d6565b6040516020818303038152906040528051906020012090508082149350505050949350505050565b60028054600181600116156101000203166002900480601f0160208091040260200160405190810160405280929190818152602001828054600181600116156101000203166002900480156112b95780601f1061128e576101008083540402835291602001916112b9565b820191906000526020600020905b81548152906001019060200180831161129c57829003601f168201915b505050505081565b6000809054906101000a900460ff1681565b600060019054906101000a900473ffffffffffffffffffffffffffffffffffffffff1681565b828054600181600116156101000203166002900490600052602060002090601f016020900481019282601f1061133a57805160ff1916838001178555611368565b82800160010185558215611368579182015b8281111561136757825182559160200191906001019061134c565b5b5090506113759190611463565b5090565b60405180606001604052806000815260200160608152602001600081525090565b828054600181600116156101000203166002900490600052602060002090601f016020900481019282601f106113db57805160ff1916838001178555611409565b82800160010185558215611409579182015b828111156114085782518255916020019190600101906113ed565b5b5090506114169190611463565b5090565b60405180606001604052806000815260200160608152602001600081525090565b6040518060800160405280600081526020016060815260200160608152602001600081525090565b61148591905b80821115611481576000816000905550600101611469565b5090565b90565b600082601f83011261149957600080fd5b81356114ac6114a782611c54565b611c27565b915080825260208301602083018583830111156114c857600080fd5b6114d3838284611d30565b50505092915050565b6000813590506114eb81611d9a565b92915050565b60006020828403121561150357600080fd5b600082013567ffffffffffffffff81111561151d57600080fd5b61152984828501611488565b91505092915050565b60006020828403121561154457600080fd5b6000611552848285016114dc565b91505092915050565b6000806000806080858703121561157157600080fd5b600061157f878288016114dc565b945050602085013567ffffffffffffffff81111561159c57600080fd5b6115a887828801611488565b935050604085013567ffffffffffffffff8111156115c557600080fd5b6115d187828801611488565b92505060606115e2878288016114dc565b91505092959194509250565b60008060006060848603121561160357600080fd5b6000611611868287016114dc565b935050602084013567ffffffffffffffff81111561162e57600080fd5b61163a86828701611488565b925050604061164b868287016114dc565b9150509250925092565b6000806040838503121561166857600080fd5b6000611676858286016114dc565b9250506020611687858286016114dc565b9150509250929050565b6000806000606084860312156116a657600080fd5b60006116b4868287016114dc565b93505060206116c5868287016114dc565b925050604084013567ffffffffffffffff8111156116e257600080fd5b6116ee86828701611488565b9150509250925092565b60008060006060848603121561170d57600080fd5b600061171b868287016114dc565b935050602061172c868287016114dc565b925050604061173d868287016114dc565b9150509250925092565b61175081611cc3565b82525050565b61175f81611cd5565b82525050565b61176e81611d1e565b82525050565b600061177f82611c8b565b6117898185611ca7565b9350611799818560208601611d3f565b6117a281611d7c565b840191505092915050565b60006117b882611c8b565b6117c28185611cb8565b93506117d2818560208601611d3f565b80840191505092915050565b60006117e982611c80565b6117f38185611c96565b9350611803818560208601611d3f565b61180c81611d7c565b840191505092915050565b600061182282611c80565b61182c8185611ca7565b935061183c818560208601611d3f565b61184581611d7c565b840191505092915050565b600061185b82611c80565b6118658185611cb8565b9350611875818560208601611d3f565b80840191505092915050565b600061188e600883611ca7565b91507f526573706f6e73650000000000000000000000000000000000000000000000006000830152602082019050919050565b60006118ce600583611ca7565b91507f4572726f720000000000000000000000000000000000000000000000000000006000830152602082019050919050565b600060608301600083015161191960008601826119a1565b506020830151848203602086015261193182826117de565b915050604083015161194660408601826119a1565b508091505092915050565b600060608301600083015161196960008601826119a1565b506020830151848203602086015261198182826117de565b915050604083015161199660408601826119a1565b508091505092915050565b6119aa81611d14565b82525050565b6119b981611d14565b82525050565b6119d06119cb82611d14565b611d72565b82525050565b60006119e282876119bf565b6020820191506119f282866117ad565b91506119fe82856117ad565b9150611a0a82846119bf565b60208201915081905095945050505050565b6000611a2882876119bf565b602082019150611a388286611850565b9150611a448285611850565b9150611a5082846119bf565b60208201915081905095945050505050565b6000602082019050611a776000830184611747565b92915050565b6000602082019050611a926000830184611756565b92915050565b6000602082019050611aad6000830184611765565b92915050565b60006020820190508181036000830152611acd8184611817565b905092915050565b60006020820190508181036000830152611aef8184611774565b905092915050565b60006020820190508181036000830152611b1081611881565b9050919050565b60006020820190508181036000830152611b30816118c1565b9050919050565b60006020820190508181036000830152611b518184611901565b905092915050565b60006020820190508181036000830152611b738184611951565b905092915050565b6000602082019050611b9060008301846119b0565b92915050565b6000608082019050611bab60008301876119b0565b8181036020830152611bbd8186611817565b90508181036040830152611bd18185611817565b9050611be060608301846119b0565b95945050505050565b6000606082019050611bfe60008301866119b0565b8181036020830152611c108185611817565b9050611c1f60408301846119b0565b949350505050565b6000604051905081810181811067ffffffffffffffff82111715611c4a57600080fd5b8060405250919050565b600067ffffffffffffffff821115611c6b57600080fd5b601f19601f8301169050602081019050919050565b600081519050919050565b600081519050919050565b600082825260208201905092915050565b600082825260208201905092915050565b600081905092915050565b6000611cce82611cf4565b9050919050565b60008115159050919050565b6000819050611cef82611d8d565b919050565b600073ffffffffffffffffffffffffffffffffffffffff82169050919050565b6000819050919050565b6000611d2982611ce1565b9050919050565b82818337600083830152505050565b60005b83811015611d5d578082015181840152602081019050611d42565b83811115611d6c576000848401525b50505050565b6000819050919050565b6000601f19601f8301169050919050565b60028110611d9757fe5b50565b611da381611d14565b8114611dae57600080fd5b5056fea265627a7a723058207ed73716a1256334fe4e2e202dfcaf78a4005b789575241585efcbb2e0cd9b9c6c6578706572696d656e74616cf50037",
  "source": "pragma solidity ^0.5.0;\npragma experimental ABIEncoderV2;\n\ncontract IndianElection{\n\n    //Set of States\n    enum StateType { Request, Respond}\n\n    //List of properties\n    StateType public  State;\n    address public  Requestor;\n    address public  Responder;\n\n    string public RequestMessage;\n    string public ResponseMessage;\n\n    event StateChanged(string stateData);\n\n    // Voters DigitalId\n\n    struct DigitalId{\n        uint aadhaarNo;\n        string fingerPrint;\n        string retinaInfo;\n        uint constituencyId;\n    }\n\n    // Candidate Model\n\n    struct Candidate {\n        uint candidateId;\n        string candidateName;\n        uint candidateVoteCount;\n    }\n\n    // Voter List\n    mapping(uint => DigitalId) public voterList;\n    uint public eligibleVoters;\n\n    // Mapping to store voters who have voted (adhaar to boolean)\n    // This is for all constituencies(entire country)\n    mapping(uint => bool) public voterEntry;\n\n    // Constituency model\n\n    struct Constituency {\n        uint constituencyId;\n        string constituencyName;\n        uint candidateCount;\n        \n    }\n\n    mapping(uint => Constituency) public constituencyList;\n    // ConstituencyId -> Candidates Array\n    mapping(uint => Candidate[]) public candidatesInformation; \n    // constructor function\n    constructor() public\n    {\n        Requestor = msg.sender;\n        RequestMessage = \"Hello\";\n        State = StateType.Request;\n\n        emit StateChanged('Request');\n    }\n\n    // call this function to send a request\n    function SendRequest(string memory requestMessage) public\n    {\n        if (Requestor != msg.sender)\n        {\n            revert(\"Error\");\n        }\n\n        RequestMessage = requestMessage;\n        State = StateType.Request;\n    }\n\n    // call this function to send a response\n    function SendResponse(string memory responseMessage) public\n    {\n        Responder = msg.sender;\n\n        // call ContractUpdated() to record this action\n        ResponseMessage = responseMessage;\n        State = StateType.Respond;\n\n        emit StateChanged('Response');\n    }\n\n    function getMessage() public view returns (string memory)\n    {\n        if (State == StateType.Request)\n            return RequestMessage;\n        else\n            return ResponseMessage;\n    }\n\n    // Step 1 : adding all existing constituencies with candidates info\n    function addConstituency(uint constituencyId, string memory constituencyName, uint candidateCount) public\n    {\n        \n        constituencyList[constituencyId] = Constituency(constituencyId, constituencyName, candidateCount);\n\n    }\n\n    // Step 2 : adding candidates to constituencies \n    function addCandidate(uint constituencyId,uint candidateId,string memory candidateName) public\n    {\n        Candidate memory ElectionCandidate = Candidate(candidateId,candidateName,0);\n        candidatesInformation[constituencyId].push(ElectionCandidate);\n        constituencyList[constituencyId].candidateCount += 1;\n    }\n    function returnCandidateInfo(uint constituencyId,uint candidateId) public view returns (Candidate memory){\n        return candidatesInformation[constituencyId][candidateId];\n    }\n    \n    function returnContituencyInfo(uint constituencyId) public view returns (Constituency memory){\n        return constituencyList[constituencyId];\n    }\n\n    // Step 3 : initialize the voting list\n    function addVoterToList(uint aadhaarNo, string memory fingerPrint, string memory retinaInfo, uint constituencyId) public\n    {\n        voterEntry[aadhaarNo] = false;\n        voterList[aadhaarNo] = DigitalId(aadhaarNo, fingerPrint, retinaInfo, constituencyId);\n        eligibleVoters += 1;\n    }\n\n    // Step 4 : Verify the details of the voter\n    function verifyVoter(uint aadhaarNo, string memory fingerPrint, string memory retinaInfo, uint constituencyId) public view returns (bool)\n    {\n        // Voter has not voted before\n        require(!voterEntry[aadhaarNo], \"Error\");\n        DigitalId memory temp = voterList[aadhaarNo];\n        // Comparision through keccak256() instead of iterating to save time and gas cost\n\n        bytes32 b1 = keccak256(abi.encodePacked(temp.aadhaarNo, temp.fingerPrint, temp.retinaInfo, temp.constituencyId));\n        bytes32 b2 = keccak256(abi.encodePacked(aadhaarNo, fingerPrint, retinaInfo, constituencyId));\n\n        return b1 == b2;\n        // Iterate through the eligle voter info and check if there is a match\n    }\n\n    // Step 5 : Vote for a candidate\n    function vote(uint _candidateId, uint adhaarNo, uint constituencyId) public\n    {\n        require(!voterEntry[adhaarNo]);\n        \n        // Mark the user has now voted\n        voterEntry[adhaarNo] = true;\n\n        // Increment the vote count for the candidate chosen\n       candidatesInformation[constituencyId][_candidateId].candidateVoteCount += 1;\n    }\n\n    function returnVoteCount(uint _candidateId, uint constituencyId) public view returns (uint)\n    {\n        return candidatesInformation[constituencyId][_candidateId].candidateVoteCount ;\n    }\n\n}",
  "sourcePath": "/home/ishar/Desktop/General/work/Projects/CodeFunDo/IndianElection/contracts/IndianElection.sol",
  "compiler": {
    "name": "solc",
    "version": "0.5.8+commit.23d335f2.Emscripten.clang"
  },
  "schemaVersion": "3.0.11",
  "updatedAt": "2019-08-14T17:46:21.673Z",
  "devdoc": {
    "methods": {}
  },
  "userdoc": {
    "methods": {}
  }
}