{
  "contractName": "IndianElection",
  "abi": [
    {
      "constant": true,
      "inputs": [
        {
          "name": "",
          "type": "uint256"
        },
        {
          "name": "",
          "type": "uint256"
        }
      ],
      "name": "candidatesInformation",
      "outputs": [
        {
          "name": "candidateId",
          "type": "uint256"
        },
        {
          "name": "candidateName",
          "type": "string"
        },
        {
          "name": "candidateVoteCount",
          "type": "uint256"
        }
      ],
      "payable": false,
      "stateMutability": "view",
      "type": "function"
    },
    {
      "constant": true,
      "inputs": [
        {
          "name": "",
          "type": "uint256"
        }
      ],
      "name": "voterEntry",
      "outputs": [
        {
          "name": "",
          "type": "bool"
        }
      ],
      "payable": false,
      "stateMutability": "view",
      "type": "function"
    },
    {
      "constant": true,
      "inputs": [],
      "name": "eligibleVoters",
      "outputs": [
        {
          "name": "",
          "type": "uint256"
        }
      ],
      "payable": false,
      "stateMutability": "view",
      "type": "function"
    },
    {
      "constant": true,
      "inputs": [
        {
          "name": "",
          "type": "uint256"
        }
      ],
      "name": "constituencyList",
      "outputs": [
        {
          "name": "constituencyId",
          "type": "uint256"
        },
        {
          "name": "constituencyName",
          "type": "string"
        },
        {
          "name": "candidateCount",
          "type": "uint256"
        }
      ],
      "payable": false,
      "stateMutability": "view",
      "type": "function"
    },
    {
      "constant": true,
      "inputs": [
        {
          "name": "",
          "type": "uint256"
        }
      ],
      "name": "voterList",
      "outputs": [
        {
          "name": "aadhaarNo",
          "type": "uint256"
        },
        {
          "name": "fingerPrint",
          "type": "string"
        },
        {
          "name": "retinaInfo",
          "type": "string"
        },
        {
          "name": "constituencyId",
          "type": "uint256"
        }
      ],
      "payable": false,
      "stateMutability": "view",
      "type": "function"
    },
    {
      "constant": true,
      "inputs": [],
      "name": "ResponseMessage",
      "outputs": [
        {
          "name": "",
          "type": "string"
        }
      ],
      "payable": false,
      "stateMutability": "view",
      "type": "function"
    },
    {
      "constant": true,
      "inputs": [],
      "name": "Responder",
      "outputs": [
        {
          "name": "",
          "type": "address"
        }
      ],
      "payable": false,
      "stateMutability": "view",
      "type": "function"
    },
    {
      "constant": true,
      "inputs": [],
      "name": "RequestMessage",
      "outputs": [
        {
          "name": "",
          "type": "string"
        }
      ],
      "payable": false,
      "stateMutability": "view",
      "type": "function"
    },
    {
      "constant": true,
      "inputs": [],
      "name": "State",
      "outputs": [
        {
          "name": "",
          "type": "uint8"
        }
      ],
      "payable": false,
      "stateMutability": "view",
      "type": "function"
    },
    {
      "constant": true,
      "inputs": [],
      "name": "Requestor",
      "outputs": [
        {
          "name": "",
          "type": "address"
        }
      ],
      "payable": false,
      "stateMutability": "view",
      "type": "function"
    },
    {
      "inputs": [],
      "payable": false,
      "stateMutability": "nonpayable",
      "type": "constructor"
    },
    {
      "anonymous": false,
      "inputs": [
        {
          "indexed": false,
          "name": "stateData",
          "type": "string"
        }
      ],
      "name": "StateChanged",
      "type": "event"
    },
    {
      "constant": false,
      "inputs": [
        {
          "name": "requestMessage",
          "type": "string"
        }
      ],
      "name": "SendRequest",
      "outputs": [],
      "payable": false,
      "stateMutability": "nonpayable",
      "type": "function"
    },
    {
      "constant": false,
      "inputs": [
        {
          "name": "responseMessage",
          "type": "string"
        }
      ],
      "name": "SendResponse",
      "outputs": [],
      "payable": false,
      "stateMutability": "nonpayable",
      "type": "function"
    },
    {
      "constant": true,
      "inputs": [],
      "name": "getMessage",
      "outputs": [
        {
          "name": "",
          "type": "string"
        }
      ],
      "payable": false,
      "stateMutability": "view",
      "type": "function"
    },
    {
      "constant": false,
      "inputs": [
        {
          "name": "constituencyId",
          "type": "uint256"
        },
        {
          "name": "constituencyName",
          "type": "string"
        },
        {
          "name": "candidateCount",
          "type": "uint256"
        }
      ],
      "name": "addConstituency",
      "outputs": [],
      "payable": false,
      "stateMutability": "nonpayable",
      "type": "function"
    },
    {
      "constant": false,
      "inputs": [
        {
          "name": "constituencyId",
          "type": "uint256"
        },
        {
          "name": "candidateId",
          "type": "uint256"
        },
        {
          "name": "candidateName",
          "type": "string"
        }
      ],
      "name": "addCandidate",
      "outputs": [],
      "payable": false,
      "stateMutability": "nonpayable",
      "type": "function"
    },
    {
      "constant": false,
      "inputs": [
        {
          "name": "aadhaarNo",
          "type": "uint256"
        },
        {
          "name": "fingerPrint",
          "type": "string"
        },
        {
          "name": "retinaInfo",
          "type": "string"
        },
        {
          "name": "constituencyId",
          "type": "uint256"
        }
      ],
      "name": "addVoterToList",
      "outputs": [],
      "payable": false,
      "stateMutability": "nonpayable",
      "type": "function"
    },
    {
      "constant": true,
      "inputs": [
        {
          "name": "aadhaarNo",
          "type": "uint256"
        },
        {
          "name": "fingerPrint",
          "type": "string"
        },
        {
          "name": "retinaInfo",
          "type": "string"
        },
        {
          "name": "constituencyId",
          "type": "uint256"
        }
      ],
      "name": "verifyVoter",
      "outputs": [
        {
          "name": "",
          "type": "bool"
        }
      ],
      "payable": false,
      "stateMutability": "view",
      "type": "function"
    },
    {
      "constant": false,
      "inputs": [
        {
          "name": "_candidateId",
          "type": "uint256"
        },
        {
          "name": "adhaarNo",
          "type": "uint256"
        },
        {
          "name": "constituencyId",
          "type": "uint256"
        }
      ],
      "name": "vote",
      "outputs": [],
      "payable": false,
      "stateMutability": "nonpayable",
      "type": "function"
    },
    {
      "constant": true,
      "inputs": [
        {
          "name": "_candidateId",
          "type": "uint256"
        },
        {
          "name": "constituencyId",
          "type": "uint256"
        }
      ],
      "name": "returnVoteCount",
      "outputs": [
        {
          "name": "",
          "type": "uint256"
        }
      ],
      "payable": false,
      "stateMutability": "view",
      "type": "function"
    }
  ],
  "bytecode": "0x60806040523480156200001157600080fd5b5033600060016101000a81548173ffffffffffffffffffffffffffffffffffffffff021916908373ffffffffffffffffffffffffffffffffffffffff1602179055506040805190810160405280600581526020017f48656c6c6f00000000000000000000000000000000000000000000000000000081525060029080519060200190620000a092919062000133565b5060008060006101000a81548160ff02191690836001811115620000c057fe5b02179055507f8fbf346523616c015d34c71713ea41bb98008282341b0f191f578d20d7ed26e26040518080602001828103825260078152602001807f526571756573740000000000000000000000000000000000000000000000000081525060200191505060405180910390a1620001e2565b828054600181600116156101000203166002900490600052602060002090601f016020900481019282601f106200017657805160ff1916838001178555620001a7565b82800160010185558215620001a7579182015b82811115620001a657825182559160200191906001019062000189565b5b509050620001b69190620001ba565b5090565b620001df91905b80821115620001db576000816000905550600101620001c1565b5090565b90565b611ead80620001f26000396000f3fe608060405260043610610107576000357c0100000000000000000000000000000000000000000000000000000000900463ffffffff1680630fa731051461010c57806312b0f391146101d85780631e974c691461022b578063386e800f146102565780633fac3553146103c957806350e2e8af1461048b5780635ab28ecb146105b95780637ee0e4ec14610649578063829c2d6d146107255780638a6655d6146107ed578063a7a1ba151461083c578063a958f1aa14610904578063ce6d41de146109e0578063d181ada114610a70578063d619f16614610ac7578063de423afe14610b20578063e750e2da14610cab578063f1b6dccd14610d3b578063fd05116c14610d74575b600080fd5b34801561011857600080fd5b5061014f6004803603604081101561012f57600080fd5b810190808035906020019092919080359060200190929190505050610dcb565b6040518084815260200180602001838152602001828103825284818151815260200191508051906020019080838360005b8381101561019b578082015181840152602081019050610180565b50505050905090810190601f1680156101c85780820380516001836020036101000a031916815260200191505b5094505050505060405180910390f35b3480156101e457600080fd5b50610211600480360360208110156101fb57600080fd5b8101908080359060200190929190505050610ea9565b604051808215151515815260200191505060405180910390f35b34801561023757600080fd5b50610240610ec9565b6040518082815260200191505060405180910390f35b34801561026257600080fd5b506103c76004803603608081101561027957600080fd5b8101908080359060200190929190803590602001906401000000008111156102a057600080fd5b8201836020820111156102b257600080fd5b803590602001918460018302840111640100000000831117156102d457600080fd5b91908080601f016020809104026020016040519081016040528093929190818152602001838380828437600081840152601f19601f8201169050808301925050505050505091929192908035906020019064010000000081111561033757600080fd5b82018360208201111561034957600080fd5b8035906020019184600183028401116401000000008311171561036b57600080fd5b91908080601f016020809104026020016040519081016040528093929190818152602001838380828437600081840152601f19601f82011690508083019250505050505050919291929080359060200190929190505050610ecf565b005b3480156103d557600080fd5b50610402600480360360208110156103ec57600080fd5b8101908080359060200190929190505050610f98565b6040518084815260200180602001838152602001828103825284818151815260200191508051906020019080838360005b8381101561044e578082015181840152602081019050610433565b50505050905090810190601f16801561047b5780820380516001836020036101000a031916815260200191505b5094505050505060405180910390f35b34801561049757600080fd5b506104c4600480360360208110156104ae57600080fd5b810190808035906020019092919050505061105a565b604051808581526020018060200180602001848152602001838103835286818151815260200191508051906020019080838360005b838110156105145780820151818401526020810190506104f9565b50505050905090810190601f1680156105415780820380516001836020036101000a031916815260200191505b50838103825285818151815260200191508051906020019080838360005b8381101561057a57808201518184015260208101905061055f565b50505050905090810190601f1680156105a75780820380516001836020036101000a031916815260200191505b50965050505050505060405180910390f35b3480156105c557600080fd5b506105ce6111ba565b6040518080602001828103825283818151815260200191508051906020019080838360005b8381101561060e5780820151818401526020810190506105f3565b50505050905090810190601f16801561063b5780820380516001836020036101000a031916815260200191505b509250505060405180910390f35b34801561065557600080fd5b506107236004803603606081101561066c57600080fd5b81019080803590602001909291908035906020019064010000000081111561069357600080fd5b8201836020820111156106a557600080fd5b803590602001918460018302840111640100000000831117156106c757600080fd5b91908080601f016020809104026020016040519081016040528093929190818152602001838380828437600081840152601f19601f82011690508083019250505050505050919291929080359060200190929190505050611258565b005b34801561073157600080fd5b506107eb6004803603602081101561074857600080fd5b810190808035906020019064010000000081111561076557600080fd5b82018360208201111561077757600080fd5b8035906020019184600183028401116401000000008311171561079957600080fd5b91908080601f016020809104026020016040519081016040528093929190818152602001838380828437600081840152601f19601f8201169050808301925050505050505091929192905050506112c0565b005b3480156107f957600080fd5b5061083a6004803603606081101561081057600080fd5b810190808035906020019092919080359060200190929190803590602001909291905050506113a6565b005b34801561084857600080fd5b506109026004803603602081101561085f57600080fd5b810190808035906020019064010000000081111561087c57600080fd5b82018360208201111561088e57600080fd5b803590602001918460018302840111640100000000831117156108b057600080fd5b91908080601f016020809104026020016040519081016040528093929190818152602001838380828437600081840152601f19601f8201169050808301925050505050505091929192905050506114ad565b005b34801561091057600080fd5b506109de6004803603606081101561092757600080fd5b8101908080359060200190929190803590602001909291908035906020019064010000000081111561095857600080fd5b82018360208201111561096a57600080fd5b8035906020019184600183028401116401000000008311171561098c57600080fd5b91908080601f016020809104026020016040519081016040528093929190818152602001838380828437600081840152601f19601f8201169050808301925050505050505091929192905050506115af565b005b3480156109ec57600080fd5b506109f5611674565b6040518080602001828103825283818151815260200191508051906020019080838360005b83811015610a35578082015181840152602081019050610a1a565b50505050905090810190601f168015610a625780820380516001836020036101000a031916815260200191505b509250505060405180910390f35b348015610a7c57600080fd5b50610a856117e6565b604051808273ffffffffffffffffffffffffffffffffffffffff1673ffffffffffffffffffffffffffffffffffffffff16815260200191505060405180910390f35b348015610ad357600080fd5b50610b0a60048036036040811015610aea57600080fd5b81019080803590602001909291908035906020019092919050505061180c565b6040518082815260200191505060405180910390f35b348015610b2c57600080fd5b50610c9160048036036080811015610b4357600080fd5b810190808035906020019092919080359060200190640100000000811115610b6a57600080fd5b820183602082011115610b7c57600080fd5b80359060200191846001830284011164010000000083111715610b9e57600080fd5b91908080601f016020809104026020016040519081016040528093929190818152602001838380828437600081840152601f19601f82011690508083019250505050505050919291929080359060200190640100000000811115610c0157600080fd5b820183602082011115610c1357600080fd5b80359060200191846001830284011164010000000083111715610c3557600080fd5b91908080601f016020809104026020016040519081016040528093929190818152602001838380828437600081840152601f19601f82011690508083019250505050505050919291929080359060200190929190505050611848565b604051808215151515815260200191505060405180910390f35b348015610cb757600080fd5b50610cc0611c3b565b6040518080602001828103825283818151815260200191508051906020019080838360005b83811015610d00578082015181840152602081019050610ce5565b50505050905090810190601f168015610d2d5780820380516001836020036101000a031916815260200191505b509250505060405180910390f35b348015610d4757600080fd5b50610d50611cd9565b60405180826001811115610d6057fe5b60ff16815260200191505060405180910390f35b348015610d8057600080fd5b50610d89611ceb565b604051808273ffffffffffffffffffffffffffffffffffffffff1673ffffffffffffffffffffffffffffffffffffffff16815260200191505060405180910390f35b600860205281600052604060002081815481101515610de657fe5b906000526020600020906003020160009150915050806000015490806001018054600181600116156101000203166002900480601f016020809104026020016040519081016040528092919081815260200182805460018160011615610100020316600290048015610e995780601f10610e6e57610100808354040283529160200191610e99565b820191906000526020600020905b815481529060010190602001808311610e7c57829003601f168201915b5050505050908060020154905083565b60066020528060005260406000206000915054906101000a900460ff1681565b60055481565b60006006600086815260200190815260200160002060006101000a81548160ff0219169083151502179055506080604051908101604052808581526020018481526020018381526020018281525060046000868152602001908152602001600020600082015181600001556020820151816001019080519060200190610f56929190611d11565b506040820151816002019080519060200190610f73929190611d11565b5060608201518160030155905050600160056000828254019250508190555050505050565b6007602052806000526040600020600091509050806000015490806001018054600181600116156101000203166002900480601f01602080910402602001604051908101604052809291908181526020018280546001816001161561010002031660029004801561104a5780601f1061101f5761010080835404028352916020019161104a565b820191906000526020600020905b81548152906001019060200180831161102d57829003601f168201915b5050505050908060020154905083565b6004602052806000526040600020600091509050806000015490806001018054600181600116156101000203166002900480601f01602080910402602001604051908101604052809291908181526020018280546001816001161561010002031660029004801561110c5780601f106110e15761010080835404028352916020019161110c565b820191906000526020600020905b8154815290600101906020018083116110ef57829003601f168201915b505050505090806002018054600181600116156101000203166002900480601f0160208091040260200160405190810160405280929190818152602001828054600181600116156101000203166002900480156111aa5780601f1061117f576101008083540402835291602001916111aa565b820191906000526020600020905b81548152906001019060200180831161118d57829003601f168201915b5050505050908060030154905084565b60038054600181600116156101000203166002900480601f0160208091040260200160405190810160405280929190818152602001828054600181600116156101000203166002900480156112505780601f1061122557610100808354040283529160200191611250565b820191906000526020600020905b81548152906001019060200180831161123357829003601f168201915b505050505081565b60606040519081016040528084815260200183815260200182815250600760008581526020019081526020016000206000820151816000015560208201518160010190805190602001906112ad929190611d11565b5060408201518160020155905050505050565b33600160006101000a81548173ffffffffffffffffffffffffffffffffffffffff021916908373ffffffffffffffffffffffffffffffffffffffff1602179055508060039080519060200190611317929190611d91565b5060016000806101000a81548160ff0219169083600181111561133657fe5b02179055507f8fbf346523616c015d34c71713ea41bb98008282341b0f191f578d20d7ed26e26040518080602001828103825260088152602001807f526573706f6e736500000000000000000000000000000000000000000000000081525060200191505060405180910390a150565b6006600083815260200190815260200160002060009054906101000a900460ff1615151561143c576040517f08c379a000000000000000000000000000000000000000000000000000000000815260040180806020018281038252600a8152602001807f566f74657220657272310000000000000000000000000000000000000000000081525060200191505060405180910390fd5b60016006600084815260200190815260200160002060006101000a81548160ff0219169083151502179055506001600860008381526020019081526020016000208481548110151561148a57fe5b906000526020600020906003020160020160008282540192505081905550505050565b3373ffffffffffffffffffffffffffffffffffffffff16600060019054906101000a900473ffffffffffffffffffffffffffffffffffffffff1673ffffffffffffffffffffffffffffffffffffffff16141515611572576040517f08c379a00000000000000000000000000000000000000000000000000000000081526004018080602001828103825260058152602001807f4572726f7200000000000000000000000000000000000000000000000000000081525060200191505060405180910390fd5b8060029080519060200190611588929190611d91565b5060008060006101000a81548160ff021916908360018111156115a757fe5b021790555050565b6115b7611e11565b6060604051908101604052808481526020018381526020016000815250905060086000858152602001908152602001600020819080600181540180825580915050906001820390600052602060002090600302016000909192909190915060008201518160000155602082015181600101908051906020019061163b929190611d11565b50604082015181600201555050506001600760008681526020019081526020016000206002016000828254019250508190555050505050565b60606000600181111561168357fe5b6000809054906101000a900460ff16600181111561169d57fe5b14156117455760028054600181600116156101000203166002900480601f0160208091040260200160405190810160405280929190818152602001828054600181600116156101000203166002900480156117395780601f1061170e57610100808354040283529160200191611739565b820191906000526020600020905b81548152906001019060200180831161171c57829003601f168201915b505050505090506117e3565b60038054600181600116156101000203166002900480601f0160208091040260200160405190810160405280929190818152602001828054600181600116156101000203166002900480156117db5780601f106117b0576101008083540402835291602001916117db565b820191906000526020600020905b8154815290600101906020018083116117be57829003601f168201915b505050505090505b90565b600160009054906101000a900473ffffffffffffffffffffffffffffffffffffffff1681565b6000600860008381526020019081526020016000208381548110151561182e57fe5b906000526020600020906003020160020154905092915050565b60006006600086815260200190815260200160002060009054906101000a900460ff161515156118e0576040517f08c379a00000000000000000000000000000000000000000000000000000000081526004018080602001828103825260098152602001807f566f74657220657272000000000000000000000000000000000000000000000081525060200191505060405180910390fd5b6118e8611e33565b600460008781526020019081526020016000206080604051908101604052908160008201548152602001600182018054600181600116156101000203166002900480601f0160208091040260200160405190810160405280929190818152602001828054600181600116156101000203166002900480156119aa5780601f1061197f576101008083540402835291602001916119aa565b820191906000526020600020905b81548152906001019060200180831161198d57829003601f168201915b50505050508152602001600282018054600181600116156101000203166002900480601f016020809104026020016040519081016040528092919081815260200182805460018160011615610100020316600290048015611a4c5780601f10611a2157610100808354040283529160200191611a4c565b820191906000526020600020905b815481529060010190602001808311611a2f57829003601f168201915b505050505081526020016003820154815250509050600081600001518260200151836040015184606001516040516020018085815260200184805190602001908083835b602083101515611ab55780518252602082019150602081019050602083039250611a90565b6001836020036101000a03801982511681845116808217855250505050505090500183805190602001908083835b602083101515611b085780518252602082019150602081019050602083039250611ae3565b6001836020036101000a0380198251168184511680821785525050505050509050018281526020019450505050506040516020818303038152906040528051906020012090506000878787876040516020018085815260200184805190602001908083835b602083101515611b925780518252602082019150602081019050602083039250611b6d565b6001836020036101000a03801982511681845116808217855250505050505090500183805190602001908083835b602083101515611be55780518252602082019150602081019050602083039250611bc0565b6001836020036101000a0380198251168184511680821785525050505050509050018281526020019450505050506040516020818303038152906040528051906020012090508082149350505050949350505050565b60028054600181600116156101000203166002900480601f016020809104026020016040519081016040528092919081815260200182805460018160011615610100020316600290048015611cd15780601f10611ca657610100808354040283529160200191611cd1565b820191906000526020600020905b815481529060010190602001808311611cb457829003601f168201915b505050505081565b6000809054906101000a900460ff1681565b600060019054906101000a900473ffffffffffffffffffffffffffffffffffffffff1681565b828054600181600116156101000203166002900490600052602060002090601f016020900481019282601f10611d5257805160ff1916838001178555611d80565b82800160010185558215611d80579182015b82811115611d7f578251825591602001919060010190611d64565b5b509050611d8d9190611e5c565b5090565b828054600181600116156101000203166002900490600052602060002090601f016020900481019282601f10611dd257805160ff1916838001178555611e00565b82800160010185558215611e00579182015b82811115611dff578251825591602001919060010190611de4565b5b509050611e0d9190611e5c565b5090565b6060604051908101604052806000815260200160608152602001600081525090565b608060405190810160405280600081526020016060815260200160608152602001600081525090565b611e7e91905b80821115611e7a576000816000905550600101611e62565b5090565b9056fea165627a7a723058208c1897a2a178a189c8321b1d9f06fde2664154d43de07df770f4698d64d379650029",
  "source": "pragma solidity ^0.5.0;\n\n\ncontract IndianElection{\n\n    //Set of States\n    enum StateType { Request, Respond}\n\n    //List of properties\n    StateType public  State;\n    address public  Requestor;\n    address public  Responder;\n\n    string public RequestMessage;\n    string public ResponseMessage;\n\n    event StateChanged(string stateData);\n\n    // Voters DigitalId\n\n    struct DigitalId{\n        uint aadhaarNo;\n        string fingerPrint;\n        string retinaInfo;\n        uint constituencyId;\n    }\n\n    // Candidate Model\n\n    struct Candidate {\n        uint candidateId;\n        string candidateName;\n        uint candidateVoteCount;\n    }\n\n    // Voter List\n    mapping(uint => DigitalId) public voterList;\n    uint public eligibleVoters;\n\n    // Mapping to store voters who have voted (adhaar to boolean)\n    // This is for all constituencies(entire country)\n    mapping(uint => bool) public voterEntry;\n\n    // Constituency model\n\n    struct Constituency {\n        uint constituencyId;\n        string constituencyName;\n        uint candidateCount;\n        \n    }\n\n    mapping(uint => Constituency) public constituencyList;\n    // ConstituencyId -> Candidates Array\n    mapping(uint => Candidate[]) public candidatesInformation; \n    // constructor function\n    constructor() public\n    {\n        Requestor = msg.sender;\n        RequestMessage = \"Hello\";\n        State = StateType.Request;\n\n        emit StateChanged('Request');\n    }\n\n    // call this function to send a request\n    function SendRequest(string memory requestMessage) public\n    {\n        if (Requestor != msg.sender)\n        {\n            revert(\"Error\");\n        }\n\n        RequestMessage = requestMessage;\n        State = StateType.Request;\n    }\n\n    // call this function to send a response\n    function SendResponse(string memory responseMessage) public\n    {\n        Responder = msg.sender;\n\n        // call ContractUpdated() to record this action\n        ResponseMessage = responseMessage;\n        State = StateType.Respond;\n\n        emit StateChanged('Response');\n    }\n\n    function getMessage() public view returns (string memory)\n    {\n        if (State == StateType.Request)\n            return RequestMessage;\n        else\n            return ResponseMessage;\n    }\n\n    // Step 1 : adding all existing constituencies with candidates info\n    function addConstituency(uint constituencyId, string memory constituencyName, uint candidateCount) public\n    {\n        \n        constituencyList[constituencyId] = Constituency(constituencyId, constituencyName, candidateCount);\n\n    }\n\n    // Step 2 : adding candidates to constituencies \n    function addCandidate(uint constituencyId,uint candidateId,string memory candidateName) public\n    {\n        Candidate memory ElectionCandidate = Candidate(candidateId,candidateName,0);\n        candidatesInformation[constituencyId].push(ElectionCandidate);\n        constituencyList[constituencyId].candidateCount += 1;\n    }\n    /*\n    function returnCandidateInfo(uint constituencyId,uint candidateId) public view returns (Candidate memory){\n        return candidatesInformation[constituencyId][candidateId];\n    }\n    \n    function returnContituencyInfo(uint constituencyId) public view returns (Constituency memory){\n        return constituencyList[constituencyId];\n    }*/\n\n    // Step 3 : initialize the voting list\n    function addVoterToList(uint aadhaarNo, string memory fingerPrint, string memory retinaInfo, uint constituencyId) public\n    {\n        voterEntry[aadhaarNo] = false;\n        voterList[aadhaarNo] = DigitalId(aadhaarNo, fingerPrint, retinaInfo, constituencyId);\n        eligibleVoters += 1;\n    }\n\n    // Step 4 : Verify the details of the voter\n    function verifyVoter(uint aadhaarNo, string memory fingerPrint, string memory retinaInfo, uint constituencyId) public view returns (bool)\n    {\n        // Voter has not voted before\n        require(!voterEntry[aadhaarNo], \"Voter err\");\n        DigitalId memory temp = voterList[aadhaarNo];\n        // Comparision through keccak256() instead of iterating to save time and gas cost\n\n        bytes32 b1 = keccak256(abi.encodePacked(temp.aadhaarNo, temp.fingerPrint, temp.retinaInfo, temp.constituencyId));\n        bytes32 b2 = keccak256(abi.encodePacked(aadhaarNo, fingerPrint, retinaInfo, constituencyId));\n\n        return b1 == b2;\n        // Iterate through the eligle voter info and check if there is a match\n    }\n\n    // Step 5 : Vote for a candidate\n    function vote(uint _candidateId, uint adhaarNo, uint constituencyId) public\n    {\n        require(!voterEntry[adhaarNo], \"Voter err1\");\n        \n        // Mark the user has now voted\n        voterEntry[adhaarNo] = true;\n\n        // Increment the vote count for the candidate chosen\n       candidatesInformation[constituencyId][_candidateId].candidateVoteCount += 1;\n    }\n\n    function returnVoteCount(uint _candidateId, uint constituencyId) public view returns (uint)\n    {\n        return candidatesInformation[constituencyId][_candidateId].candidateVoteCount ;\n    }\n\n}",
  "sourcePath": "/home/rithvik/PESU/Codefundo/testconcontract/contracts/HelloBlockchain.sol",
  "compiler": {
    "name": "solc",
    "version": "0.5.0+commit.1d4f565a.Emscripten.clang"
  },
  "schemaVersion": "3.0.11",
  "updatedAt": "2019-08-15T09:23:11.444Z",
  "devdoc": {
    "methods": {}
  },
  "userdoc": {
    "methods": {}
  }
}