{
  "contractName": "IndianElection",
  "abi": [
    {
      "constant": true,
      "inputs": [
        {
          "name": "",
          "type": "uint256"
        },
        {
          "name": "",
          "type": "uint256"
        }
      ],
      "name": "candidatesInformation",
      "outputs": [
        {
          "name": "candidateId",
          "type": "uint256"
        },
        {
          "name": "candidateName",
          "type": "string"
        },
        {
          "name": "candidateVoteCount",
          "type": "uint256"
        }
      ],
      "payable": false,
      "stateMutability": "view",
      "type": "function"
    },
    {
      "constant": true,
      "inputs": [
        {
          "name": "",
          "type": "uint256"
        }
      ],
      "name": "voterEntry",
      "outputs": [
        {
          "name": "",
          "type": "bool"
        }
      ],
      "payable": false,
      "stateMutability": "view",
      "type": "function"
    },
    {
      "constant": true,
      "inputs": [
        {
          "name": "",
          "type": "uint256"
        }
      ],
      "name": "constituencyList",
      "outputs": [
        {
          "name": "constituencyId",
          "type": "uint256"
        },
        {
          "name": "constituencyName",
          "type": "string"
        },
        {
          "name": "candidateCount",
          "type": "uint256"
        }
      ],
      "payable": false,
      "stateMutability": "view",
      "type": "function"
    },
    {
      "constant": true,
      "inputs": [
        {
          "name": "",
          "type": "uint256"
        }
      ],
      "name": "voterList",
      "outputs": [
        {
          "name": "aadhaarNo",
          "type": "uint256"
        },
        {
          "name": "fingerPrint",
          "type": "uint256"
        },
        {
          "name": "retinaInfo",
          "type": "uint256"
        },
        {
          "name": "constituencyId",
          "type": "uint256"
        }
      ],
      "payable": false,
      "stateMutability": "view",
      "type": "function"
    },
    {
      "constant": true,
      "inputs": [],
      "name": "ResponseMessage",
      "outputs": [
        {
          "name": "",
          "type": "string"
        }
      ],
      "payable": false,
      "stateMutability": "view",
      "type": "function"
    },
    {
      "constant": true,
      "inputs": [
        {
          "name": "",
          "type": "uint256"
        }
      ],
      "name": "verfiedVoter",
      "outputs": [
        {
          "name": "",
          "type": "bool"
        }
      ],
      "payable": false,
      "stateMutability": "view",
      "type": "function"
    },
    {
      "constant": true,
      "inputs": [],
      "name": "Responder",
      "outputs": [
        {
          "name": "",
          "type": "address"
        }
      ],
      "payable": false,
      "stateMutability": "view",
      "type": "function"
    },
    {
      "constant": true,
      "inputs": [],
      "name": "RequestMessage",
      "outputs": [
        {
          "name": "",
          "type": "string"
        }
      ],
      "payable": false,
      "stateMutability": "view",
      "type": "function"
    },
    {
      "constant": true,
      "inputs": [],
      "name": "State",
      "outputs": [
        {
          "name": "",
          "type": "uint8"
        }
      ],
      "payable": false,
      "stateMutability": "view",
      "type": "function"
    },
    {
      "constant": true,
      "inputs": [],
      "name": "Requestor",
      "outputs": [
        {
          "name": "",
          "type": "address"
        }
      ],
      "payable": false,
      "stateMutability": "view",
      "type": "function"
    },
    {
      "inputs": [],
      "payable": false,
      "stateMutability": "nonpayable",
      "type": "constructor"
    },
    {
      "anonymous": false,
      "inputs": [
        {
          "indexed": false,
          "name": "stateData",
          "type": "string"
        }
      ],
      "name": "StateChanged",
      "type": "event"
    },
    {
      "anonymous": false,
      "inputs": [
        {
          "indexed": false,
          "name": "consdata",
          "type": "string"
        }
      ],
      "name": "newConstitutency",
      "type": "event"
    },
    {
      "constant": false,
      "inputs": [
        {
          "name": "requestMessage",
          "type": "string"
        }
      ],
      "name": "SendRequest",
      "outputs": [],
      "payable": false,
      "stateMutability": "nonpayable",
      "type": "function"
    },
    {
      "constant": false,
      "inputs": [
        {
          "name": "responseMessage",
          "type": "string"
        }
      ],
      "name": "SendResponse",
      "outputs": [],
      "payable": false,
      "stateMutability": "nonpayable",
      "type": "function"
    },
    {
      "constant": true,
      "inputs": [],
      "name": "getMessage",
      "outputs": [
        {
          "name": "",
          "type": "string"
        }
      ],
      "payable": false,
      "stateMutability": "view",
      "type": "function"
    },
    {
      "constant": false,
      "inputs": [
        {
          "name": "username",
          "type": "string"
        },
        {
          "name": "password",
          "type": "string"
        }
      ],
      "name": "addAdmin",
      "outputs": [],
      "payable": false,
      "stateMutability": "nonpayable",
      "type": "function"
    },
    {
      "constant": true,
      "inputs": [
        {
          "name": "username",
          "type": "string"
        },
        {
          "name": "password",
          "type": "string"
        }
      ],
      "name": "verifyAdmin",
      "outputs": [
        {
          "name": "",
          "type": "bool"
        }
      ],
      "payable": false,
      "stateMutability": "view",
      "type": "function"
    },
    {
      "constant": false,
      "inputs": [
        {
          "name": "constituencyId",
          "type": "uint256"
        },
        {
          "name": "constituencyName",
          "type": "string"
        },
        {
          "name": "candidateCount",
          "type": "uint256"
        }
      ],
      "name": "addConstituency",
      "outputs": [],
      "payable": false,
      "stateMutability": "nonpayable",
      "type": "function"
    },
    {
      "constant": false,
      "inputs": [
        {
          "name": "constituencyId",
          "type": "uint256"
        },
        {
          "name": "candidateId",
          "type": "uint256"
        },
        {
          "name": "candidateName",
          "type": "string"
        }
      ],
      "name": "addCandidate",
      "outputs": [],
      "payable": false,
      "stateMutability": "nonpayable",
      "type": "function"
    },
    {
      "constant": false,
      "inputs": [
        {
          "name": "aadhaarNo",
          "type": "uint256"
        },
        {
          "name": "fingerPrint",
          "type": "uint256"
        },
        {
          "name": "retinaInfo",
          "type": "uint256"
        },
        {
          "name": "constituencyId",
          "type": "uint256"
        }
      ],
      "name": "addVoterToList",
      "outputs": [],
      "payable": false,
      "stateMutability": "nonpayable",
      "type": "function"
    },
    {
      "constant": true,
      "inputs": [
        {
          "name": "aadhaarNo",
          "type": "uint256"
        },
        {
          "name": "fingerPrint",
          "type": "uint256"
        },
        {
          "name": "retinaInfo",
          "type": "uint256"
        },
        {
          "name": "constituencyId",
          "type": "uint256"
        }
      ],
      "name": "verifyVoter",
      "outputs": [
        {
          "name": "",
          "type": "bool"
        }
      ],
      "payable": false,
      "stateMutability": "view",
      "type": "function"
    },
    {
      "constant": false,
      "inputs": [
        {
          "name": "aadhaarNo",
          "type": "uint256"
        },
        {
          "name": "fingerPrint",
          "type": "uint256"
        },
        {
          "name": "retinaInfo",
          "type": "uint256"
        },
        {
          "name": "constituencyId",
          "type": "uint256"
        }
      ],
      "name": "setVerifiedVoter",
      "outputs": [],
      "payable": false,
      "stateMutability": "nonpayable",
      "type": "function"
    },
    {
      "constant": false,
      "inputs": [
        {
          "name": "_candidateId",
          "type": "uint256"
        },
        {
          "name": "adhaarNo",
          "type": "uint256"
        },
        {
          "name": "constituencyId",
          "type": "uint256"
        }
      ],
      "name": "vote",
      "outputs": [],
      "payable": false,
      "stateMutability": "nonpayable",
      "type": "function"
    },
    {
      "constant": true,
      "inputs": [
        {
          "name": "_candidateId",
          "type": "uint256"
        },
        {
          "name": "constituencyId",
          "type": "uint256"
        }
      ],
      "name": "returnVoteCount",
      "outputs": [
        {
          "name": "",
          "type": "uint256"
        }
      ],
      "payable": false,
      "stateMutability": "view",
      "type": "function"
    },
    {
      "constant": true,
      "inputs": [
        {
          "name": "constituencyId",
          "type": "uint256"
        }
      ],
      "name": "returnWinner",
      "outputs": [
        {
          "name": "",
          "type": "string"
        }
      ],
      "payable": false,
      "stateMutability": "view",
      "type": "function"
    }
  ],
  "bytecode": "0x60806040523480156200001157600080fd5b5033600060016101000a81548173ffffffffffffffffffffffffffffffffffffffff021916908373ffffffffffffffffffffffffffffffffffffffff1602179055506040805190810160405280600581526020017f48656c6c6f00000000000000000000000000000000000000000000000000000081525060029080519060200190620000a092919062000133565b5060008060006101000a81548160ff02191690836001811115620000c057fe5b02179055507f8fbf346523616c015d34c71713ea41bb98008282341b0f191f578d20d7ed26e26040518080602001828103825260078152602001807f526571756573740000000000000000000000000000000000000000000000000081525060200191505060405180910390a1620001e2565b828054600181600116156101000203166002900490600052602060002090601f016020900481019282601f106200017657805160ff1916838001178555620001a7565b82800160010185558215620001a7579182015b82811115620001a657825182559160200191906001019062000189565b5b509050620001b69190620001ba565b5090565b620001df91905b80821115620001db576000816000905550600101620001c1565b5090565b90565b61203a80620001f26000396000f3fe608060405260043610610133576000357c0100000000000000000000000000000000000000000000000000000000900463ffffffff1680630fa731051461013857806312b0f391146102045780631f45904114610257578063258f885e146103b65780633fac35531461046a57806345d38ef21461052c57806350e2e8af146105855780635ab28ecb146105e95780636fcf1c7d146106795780637ee0e4ec146107f0578063829c2d6d146108cc5780638a6655d614610994578063a692313e146109e3578063a7a1ba1514610a36578063a958f1aa14610afe578063ce6d41de14610bda578063d181ada114610c6a578063d619f16614610cc1578063d8fa27fd14610d1a578063e750e2da14610d73578063f05cad1414610e03578063f1b6dccd14610e74578063fd05116c14610ead575b600080fd5b34801561014457600080fd5b5061017b6004803603604081101561015b57600080fd5b810190808035906020019092919080359060200190929190505050610f04565b6040518084815260200180602001838152602001828103825284818151815260200191508051906020019080838360005b838110156101c75780820151818401526020810190506101ac565b50505050905090810190601f1680156101f45780820380516001836020036101000a031916815260200191505b5094505050505060405180910390f35b34801561021057600080fd5b5061023d6004803603602081101561022757600080fd5b8101908080359060200190929190505050610fe2565b604051808215151515815260200191505060405180910390f35b34801561026357600080fd5b506103b46004803603604081101561027a57600080fd5b810190808035906020019064010000000081111561029757600080fd5b8201836020820111156102a957600080fd5b803590602001918460018302840111640100000000831117156102cb57600080fd5b91908080601f016020809104026020016040519081016040528093929190818152602001838380828437600081840152601f19601f8201169050808301925050505050505091929192908035906020019064010000000081111561032e57600080fd5b82018360208201111561034057600080fd5b8035906020019184600183028401116401000000008311171561036257600080fd5b91908080601f016020809104026020016040519081016040528093929190818152602001838380828437600081840152601f19601f820116905080830192505050505050509192919290505050611002565b005b3480156103c257600080fd5b506103ef600480360360208110156103d957600080fd5b81019080803590602001909291905050506110e9565b6040518080602001828103825283818151815260200191508051906020019080838360005b8381101561042f578082015181840152602081019050610414565b50505050905090810190601f16801561045c5780820380516001836020036101000a031916815260200191505b509250505060405180910390f35b34801561047657600080fd5b506104a36004803603602081101561048d57600080fd5b810190808035906020019092919050505061126e565b6040518084815260200180602001838152602001828103825284818151815260200191508051906020019080838360005b838110156104ef5780820151818401526020810190506104d4565b50505050905090810190601f16801561051c5780820380516001836020036101000a031916815260200191505b5094505050505060405180910390f35b34801561053857600080fd5b506105836004803603608081101561054f57600080fd5b8101908080359060200190929190803590602001909291908035906020019092919080359060200190929190505050611330565b005b34801561059157600080fd5b506105be600480360360208110156105a857600080fd5b81019080803590602001909291905050506113c2565b6040518085815260200184815260200183815260200182815260200194505050505060405180910390f35b3480156105f557600080fd5b506105fe6113f2565b6040518080602001828103825283818151815260200191508051906020019080838360005b8381101561063e578082015181840152602081019050610623565b50505050905090810190601f16801561066b5780820380516001836020036101000a031916815260200191505b509250505060405180910390f35b34801561068557600080fd5b506107d66004803603604081101561069c57600080fd5b81019080803590602001906401000000008111156106b957600080fd5b8201836020820111156106cb57600080fd5b803590602001918460018302840111640100000000831117156106ed57600080fd5b91908080601f016020809104026020016040519081016040528093929190818152602001838380828437600081840152601f19601f8201169050808301925050505050505091929192908035906020019064010000000081111561075057600080fd5b82018360208201111561076257600080fd5b8035906020019184600183028401116401000000008311171561078457600080fd5b91908080601f016020809104026020016040519081016040528093929190818152602001838380828437600081840152601f19601f820116905080830192505050505050509192919290505050611490565b604051808215151515815260200191505060405180910390f35b3480156107fc57600080fd5b506108ca6004803603606081101561081357600080fd5b81019080803590602001909291908035906020019064010000000081111561083a57600080fd5b82018360208201111561084c57600080fd5b8035906020019184600183028401116401000000008311171561086e57600080fd5b91908080601f016020809104026020016040519081016040528093929190818152602001838380828437600081840152601f19601f82011690508083019250505050505050919291929080359060200190929190505050611586565b005b3480156108d857600080fd5b50610992600480360360208110156108ef57600080fd5b810190808035906020019064010000000081111561090c57600080fd5b82018360208201111561091e57600080fd5b8035906020019184600183028401116401000000008311171561094057600080fd5b91908080601f016020809104026020016040519081016040528093929190818152602001838380828437600081840152601f19601f82011690508083019250505050505050919291929050505061168a565b005b3480156109a057600080fd5b506109e1600480360360608110156109b757600080fd5b81019080803590602001909291908035906020019092919080359060200190929190505050611770565b005b3480156109ef57600080fd5b50610a1c60048036036020811015610a0657600080fd5b810190808035906020019092919050505061183a565b604051808215151515815260200191505060405180910390f35b348015610a4257600080fd5b50610afc60048036036020811015610a5957600080fd5b8101908080359060200190640100000000811115610a7657600080fd5b820183602082011115610a8857600080fd5b80359060200191846001830284011164010000000083111715610aaa57600080fd5b91908080601f016020809104026020016040519081016040528093929190818152602001838380828437600081840152601f19601f82011690508083019250505050505050919291929050505061185a565b005b348015610b0a57600080fd5b50610bd860048036036060811015610b2157600080fd5b81019080803590602001909291908035906020019092919080359060200190640100000000811115610b5257600080fd5b820183602082011115610b6457600080fd5b80359060200191846001830284011164010000000083111715610b8657600080fd5b91908080601f016020809104026020016040519081016040528093929190818152602001838380828437600081840152601f19601f82011690508083019250505050505050919291929050505061195c565b005b348015610be657600080fd5b50610bef611a21565b6040518080602001828103825283818151815260200191508051906020019080838360005b83811015610c2f578082015181840152602081019050610c14565b50505050905090810190601f168015610c5c5780820380516001836020036101000a031916815260200191505b509250505060405180910390f35b348015610c7657600080fd5b50610c7f611b93565b604051808273ffffffffffffffffffffffffffffffffffffffff1673ffffffffffffffffffffffffffffffffffffffff16815260200191505060405180910390f35b348015610ccd57600080fd5b50610d0460048036036040811015610ce457600080fd5b810190808035906020019092919080359060200190929190505050611bb9565b6040518082815260200191505060405180910390f35b348015610d2657600080fd5b50610d7160048036036080811015610d3d57600080fd5b8101908080359060200190929190803590602001909291908035906020019092919080359060200190929190505050611bf5565b005b348015610d7f57600080fd5b50610d88611c39565b6040518080602001828103825283818151815260200191508051906020019080838360005b83811015610dc8578082015181840152602081019050610dad565b50505050905090810190601f168015610df55780820380516001836020036101000a031916815260200191505b509250505060405180910390f35b348015610e0f57600080fd5b50610e5a60048036036080811015610e2657600080fd5b8101908080359060200190929190803590602001909291908035906020019092919080359060200190929190505050611cd7565b604051808215151515815260200191505060405180910390f35b348015610e8057600080fd5b50610e89611e66565b60405180826001811115610e9957fe5b60ff16815260200191505060405180910390f35b348015610eb957600080fd5b50610ec2611e78565b604051808273ffffffffffffffffffffffffffffffffffffffff1673ffffffffffffffffffffffffffffffffffffffff16815260200191505060405180910390f35b600860205281600052604060002081815481101515610f1f57fe5b906000526020600020906003020160009150915050806000015490806001018054600181600116156101000203166002900480601f016020809104026020016040519081016040528092919081815260200182805460018160011615610100020316600290048015610fd25780601f10610fa757610100808354040283529160200191610fd2565b820191906000526020600020905b815481529060010190602001808311610fb557829003601f168201915b5050505050908060020154905083565b60056020528060005260406000206000915054906101000a900460ff1681565b806040516020018082805190602001908083835b60208310151561103b5780518252602082019150602081019050602083039250611016565b6001836020036101000a038019825116818451168082178552505050505050905001915050604051602081830303815290604052805190602001206009836040518082805190602001908083835b6020831015156110ae5780518252602082019150602081019050602083039250611089565b6001836020036101000a0380198251168184511680821785525050505050509050019150509081526020016040518091039020819055505050565b60606000600760008481526020019081526020016000206002015490506000809050600080600090505b838110156111995782600860008881526020019081526020016000208281548110151561113c57fe5b906000526020600020906003020160020154111561118c57809150600860008781526020019081526020016000208181548110151561117757fe5b90600052602060002090600302016002015492505b8080600101915050611113565b5060086000868152602001908152602001600020818154811015156111ba57fe5b90600052602060002090600302016001018054600181600116156101000203166002900480601f01602080910402602001604051908101604052809291908181526020018280546001816001161561010002031660029004801561125f5780601f106112345761010080835404028352916020019161125f565b820191906000526020600020905b81548152906001019060200180831161124257829003601f168201915b50505050509350505050919050565b6007602052806000526040600020600091509050806000015490806001018054600181600116156101000203166002900480601f0160208091040260200160405190810160405280929190818152602001828054600181600116156101000203166002900480156113205780601f106112f557610100808354040283529160200191611320565b820191906000526020600020905b81548152906001019060200180831161130357829003601f168201915b5050505050908060020154905083565b60006005600086815260200190815260200160002060006101000a81548160ff02191690831515021790555060806040519081016040528085815260200184815260200183815260200182815250600460008681526020019081526020016000206000820151816000015560208201518160010155604082015181600201556060820151816003015590505050505050565b60046020528060005260406000206000915090508060000154908060010154908060020154908060030154905084565b60038054600181600116156101000203166002900480601f0160208091040260200160405190810160405280929190818152602001828054600181600116156101000203166002900480156114885780601f1061145d57610100808354040283529160200191611488565b820191906000526020600020905b81548152906001019060200180831161146b57829003601f168201915b505050505081565b6000806009846040518082805190602001908083835b6020831015156114cb57805182526020820191506020810190506020830392506114a6565b6001836020036101000a03801982511681845116808217855250505050505090500191505090815260200160405180910390205490506000836040516020018082805190602001908083835b60208310151561153c5780518252602082019150602081019050602083039250611517565b6001836020036101000a0380198251168184511680821785525050505050509050019150506040516020818303038152906040528051906020012090508082149250505092915050565b60606040519081016040528084815260200183815260200182815250600760008581526020019081526020016000206000820151816000015560208201518160010190805190602001906115db929190611e9e565b50604082015181600201559050507fe1895770fef2e569f3fd3f6e1aa7bb7b667bcf277e6c83575b7e63ab37382d65826040518080602001828103825283818151815260200191508051906020019080838360005b8381101561164b578082015181840152602081019050611630565b50505050905090810190601f1680156116785780820380516001836020036101000a031916815260200191505b509250505060405180910390a1505050565b33600160006101000a81548173ffffffffffffffffffffffffffffffffffffffff021916908373ffffffffffffffffffffffffffffffffffffffff16021790555080600390805190602001906116e1929190611f1e565b5060016000806101000a81548160ff0219169083600181111561170057fe5b02179055507f8fbf346523616c015d34c71713ea41bb98008282341b0f191f578d20d7ed26e26040518080602001828103825260088152602001807f526573706f6e736500000000000000000000000000000000000000000000000081525060200191505060405180910390a150565b6006600083815260200190815260200160002060009054906101000a900460ff16151561179c57600080fd5b6005600083815260200190815260200160002060009054906101000a900460ff161515156117c957600080fd5b60016005600084815260200190815260200160002060006101000a81548160ff0219169083151502179055506001600860008381526020019081526020016000208481548110151561181757fe5b906000526020600020906003020160020160008282540192505081905550505050565b60066020528060005260406000206000915054906101000a900460ff1681565b3373ffffffffffffffffffffffffffffffffffffffff16600060019054906101000a900473ffffffffffffffffffffffffffffffffffffffff1673ffffffffffffffffffffffffffffffffffffffff1614151561191f576040517f08c379a00000000000000000000000000000000000000000000000000000000081526004018080602001828103825260058152602001807f4572726f7200000000000000000000000000000000000000000000000000000081525060200191505060405180910390fd5b8060029080519060200190611935929190611f1e565b5060008060006101000a81548160ff0219169083600181111561195457fe5b021790555050565b611964611f9e565b606060405190810160405280848152602001838152602001600081525090506008600085815260200190815260200160002081908060018154018082558091505090600182039060005260206000209060030201600090919290919091506000820151816000015560208201518160010190805190602001906119e8929190611e9e565b50604082015181600201555050506001600760008681526020019081526020016000206002016000828254019250508190555050505050565b606060006001811115611a3057fe5b6000809054906101000a900460ff166001811115611a4a57fe5b1415611af25760028054600181600116156101000203166002900480601f016020809104026020016040519081016040528092919081815260200182805460018160011615610100020316600290048015611ae65780601f10611abb57610100808354040283529160200191611ae6565b820191906000526020600020905b815481529060010190602001808311611ac957829003601f168201915b50505050509050611b90565b60038054600181600116156101000203166002900480601f016020809104026020016040519081016040528092919081815260200182805460018160011615610100020316600290048015611b885780601f10611b5d57610100808354040283529160200191611b88565b820191906000526020600020905b815481529060010190602001808311611b6b57829003601f168201915b505050505090505b90565b600160009054906101000a900473ffffffffffffffffffffffffffffffffffffffff1681565b60006008600083815260200190815260200160002083815481101515611bdb57fe5b906000526020600020906003020160020154905092915050565b611c0184848484611cd7565b15611c335760016006600086815260200190815260200160002060006101000a81548160ff0219169083151502179055505b50505050565b60028054600181600116156101000203166002900480601f016020809104026020016040519081016040528092919081815260200182805460018160011615610100020316600290048015611ccf5780601f10611ca457610100808354040283529160200191611ccf565b820191906000526020600020905b815481529060010190602001808311611cb257829003601f168201915b505050505081565b60006005600086815260200190815260200160002060009054906101000a900460ff16151515611d6f576040517f08c379a00000000000000000000000000000000000000000000000000000000081526004018080602001828103825260058152602001807f4572726f7200000000000000000000000000000000000000000000000000000081525060200191505060405180910390fd5b611d77611fc0565b600460008781526020019081526020016000206080604051908101604052908160008201548152602001600182015481526020016002820154815260200160038201548152505090506000816000015182602001518360400151846060015160405160200180858152602001848152602001838152602001828152602001945050505050604051602081830303815290604052805190602001209050600087878787604051602001808581526020018481526020018381526020018281526020019450505050506040516020818303038152906040528051906020012090508082149350505050949350505050565b6000809054906101000a900460ff1681565b600060019054906101000a900473ffffffffffffffffffffffffffffffffffffffff1681565b828054600181600116156101000203166002900490600052602060002090601f016020900481019282601f10611edf57805160ff1916838001178555611f0d565b82800160010185558215611f0d579182015b82811115611f0c578251825591602001919060010190611ef1565b5b509050611f1a9190611fe9565b5090565b828054600181600116156101000203166002900490600052602060002090601f016020900481019282601f10611f5f57805160ff1916838001178555611f8d565b82800160010185558215611f8d579182015b82811115611f8c578251825591602001919060010190611f71565b5b509050611f9a9190611fe9565b5090565b6060604051908101604052806000815260200160608152602001600081525090565b608060405190810160405280600081526020016000815260200160008152602001600081525090565b61200b91905b80821115612007576000816000905550600101611fef565b5090565b9056fea165627a7a723058208d4d087b08e65c911346a07e1e3a411da5713af0289c1e2ccc9289a90d029e1f0029",
  "source": "pragma solidity ^0.5.0;\n\n\ncontract IndianElection{\n\n    //Set of States\n    enum StateType { Request, Respond}\n\n    //List of properties\n    StateType public  State;\n    address public  Requestor;\n    address public  Responder;\n\n    string public RequestMessage;\n    string public ResponseMessage;\n\n    event StateChanged(string stateData);\n    event newConstitutency(string consdata);\n    // Voters DigitalId\n\n    struct DigitalId{\n        uint aadhaarNo;\n        uint fingerPrint;\n        uint retinaInfo;\n        uint constituencyId;\n    }\n\n    // Candidate Model\n\n    struct Candidate {\n        uint candidateId;\n        string candidateName;\n        uint candidateVoteCount;\n    }\n\n    // Voter List\n    mapping(uint => DigitalId) public voterList;\n    \n    // Mapping to store voters who have voted (adhaar to boolean)\n    // This is for all constituencies(entire country)\n    mapping(uint => bool) public voterEntry;\n    // Mapping to store the users who passed verification\n    mapping(uint => bool) public verfiedVoter;\n    // Constituency model\n\n    struct Constituency {\n        uint constituencyId;\n        string constituencyName;\n        uint candidateCount;\n        \n    }\n\n    mapping(uint => Constituency) public constituencyList;\n    // ConstituencyId -> Candidates Array\n    mapping(uint => Candidate[]) public candidatesInformation; \n\n    mapping(string => bytes32) adminCredentials;\n\n    // constructor function\n    constructor() public\n    {\n        Requestor = msg.sender;\n        RequestMessage = \"Hello\";\n        State = StateType.Request;\n        //addConstituency(1,\"Indiranagar\",0);\n        //addCandidate(1,0,\"Virat Kholi\");\n        emit StateChanged('Request');\n    }\n\n    // call this function to send a request\n    function SendRequest(string memory requestMessage) public\n    {\n        if (Requestor != msg.sender)\n        {\n            revert(\"Error\");\n        }\n\n        RequestMessage = requestMessage;\n        State = StateType.Request;\n    }\n\n    // call this function to send a response\n    function SendResponse(string memory responseMessage) public\n    {\n        Responder = msg.sender;\n\n        // call ContractUpdated() to record this action\n        ResponseMessage = responseMessage;\n        State = StateType.Respond;\n\n        emit StateChanged('Response');\n    }\n\n    function getMessage() public view returns (string memory)\n    {\n        if (State == StateType.Request)\n            return RequestMessage;\n        else\n            return ResponseMessage;\n    }\n    function addAdmin(string memory username, string memory password) public\n    {\n        adminCredentials[username] = keccak256(abi.encodePacked(password));\n    }\n\n    function verifyAdmin(string memory username, string memory password) public view returns (bool)\n    {\n        bytes32 stored = adminCredentials[username];\n        bytes32 given = keccak256(abi.encodePacked(password));\n        return stored == given;\n    }\n\n    // Step 1 : adding all existing constituencies with candidates info\n    function addConstituency(uint constituencyId, string memory constituencyName, uint candidateCount) public\n    {\n        \n        constituencyList[constituencyId] = Constituency(constituencyId, constituencyName, candidateCount);\n        emit newConstitutency(constituencyName);\n\n    }\n\n    // Step 2 : adding candidates to constituencies \n    function addCandidate(uint constituencyId,uint candidateId,string memory candidateName) public\n    {\n        Candidate memory ElectionCandidate = Candidate(candidateId,candidateName,0);\n        candidatesInformation[constituencyId].push(ElectionCandidate);\n        constituencyList[constituencyId].candidateCount += 1;\n    }\n    \n\n    // Step 3 : initialize the voting list\n    function addVoterToList(uint aadhaarNo,uint fingerPrint,uint retinaInfo, uint constituencyId) public\n    {\n        voterEntry[aadhaarNo] = false;\n        voterList[aadhaarNo] = DigitalId(aadhaarNo, fingerPrint, retinaInfo, constituencyId);\n    }\n\n    // Step 4 : Verify the details of the voter and set the user as verified\n    function verifyVoter(uint aadhaarNo,uint fingerPrint,uint retinaInfo, uint constituencyId) public view returns (bool)\n    {\n        // Voter has not voted before\n        require(!voterEntry[aadhaarNo], \"Error\");\n        DigitalId memory temp = voterList[aadhaarNo];\n        // Comparision through keccak256() instead of iterating to save time and gas cost\n\n        bytes32 b1 = keccak256(abi.encodePacked(temp.aadhaarNo, temp.fingerPrint, temp.retinaInfo, temp.constituencyId));\n        bytes32 b2 = keccak256(abi.encodePacked(aadhaarNo, fingerPrint, retinaInfo, constituencyId));\n\n        return b1 == b2;\n        // Iterate through the eligle voter info and check if there is a match\n    }\n\n    function setVerifiedVoter(uint aadhaarNo,uint fingerPrint,uint retinaInfo, uint constituencyId) public{\n        if(verifyVoter(aadhaarNo, fingerPrint, retinaInfo, constituencyId)){\n            verfiedVoter[aadhaarNo] = true;\n        }\n    }\n\n    // Step 5 : Vote for a candidate\n    function vote(uint _candidateId, uint adhaarNo, uint constituencyId) public\n    {\n        // Check if the user has verified \n        require(verfiedVoter[adhaarNo]);\n\n        // Check if the user has voted before;\n        require(!voterEntry[adhaarNo]);\n        \n        // Mark the user has now voted\n        voterEntry[adhaarNo] = true;\n\n        // Increment the vote count for the candidate chosen\n       candidatesInformation[constituencyId][_candidateId].candidateVoteCount += 1;\n    }\n\n    function returnVoteCount(uint _candidateId, uint constituencyId) public view returns (uint)\n    {\n        return candidatesInformation[constituencyId][_candidateId].candidateVoteCount ;\n    }\n\n    // Step 6 : Results for a particular constituentcy\n    function returnWinner(uint constituencyId) public view returns (string memory){\n        uint candidateCount = constituencyList[constituencyId].candidateCount;\n        uint maxVoteCount = 0;\n        uint winnerId;\n        for (uint i=0; i<candidateCount; i++) {\n             \n             if(candidatesInformation[constituencyId][i].candidateVoteCount > maxVoteCount){\n                    winnerId = i;\n                    maxVoteCount = candidatesInformation[constituencyId][i].candidateVoteCount;\n             }\n        }\n        return candidatesInformation[constituencyId][winnerId].candidateName;\n    }\n\n}",
  "sourcePath": "/home/rithvik/PESU/Codefundo/HelloBlockchain1/contracts/IndianElection.sol",
  "compiler": {
    "name": "solc",
    "version": "0.5.0+commit.1d4f565a.Emscripten.clang"
  },
  "schemaVersion": "3.0.11",
  "updatedAt": "2019-08-20T18:34:36.538Z",
  "devdoc": {
    "methods": {}
  },
  "userdoc": {
    "methods": {}
  }
}