{
  "contractName": "IndianElection",
  "abi": [
    {
      "constant": true,
      "inputs": [
        {
          "name": "",
          "type": "uint256"
        }
      ],
      "name": "voterEntry",
      "outputs": [
        {
          "name": "",
          "type": "bool"
        }
      ],
      "payable": false,
      "stateMutability": "view",
      "type": "function"
    },
    {
      "constant": true,
      "inputs": [
        {
          "name": "",
          "type": "uint256"
        }
      ],
      "name": "voterListHash",
      "outputs": [
        {
          "name": "",
          "type": "string"
        }
      ],
      "payable": false,
      "stateMutability": "view",
      "type": "function"
    },
    {
      "constant": true,
      "inputs": [
        {
          "name": "",
          "type": "uint256"
        }
      ],
      "name": "constituencyFileHash",
      "outputs": [
        {
          "name": "",
          "type": "string"
        }
      ],
      "payable": false,
      "stateMutability": "view",
      "type": "function"
    },
    {
      "constant": true,
      "inputs": [
        {
          "name": "",
          "type": "uint256"
        }
      ],
      "name": "candidatesList",
      "outputs": [
        {
          "name": "candidateId",
          "type": "uint256"
        },
        {
          "name": "candidateVoteCount",
          "type": "uint256"
        }
      ],
      "payable": false,
      "stateMutability": "view",
      "type": "function"
    },
    {
      "constant": false,
      "inputs": [
        {
          "name": "constId",
          "type": "uint256"
        },
        {
          "name": "fileHash",
          "type": "string"
        }
      ],
      "name": "setConstituencyFileHash",
      "outputs": [],
      "payable": false,
      "stateMutability": "nonpayable",
      "type": "function"
    },
    {
      "constant": false,
      "inputs": [
        {
          "name": "constId",
          "type": "uint256"
        },
        {
          "name": "fileHash",
          "type": "string"
        }
      ],
      "name": "setVoterListFileHash",
      "outputs": [],
      "payable": false,
      "stateMutability": "nonpayable",
      "type": "function"
    },
    {
      "constant": false,
      "inputs": [
        {
          "name": "username",
          "type": "string"
        },
        {
          "name": "password",
          "type": "string"
        }
      ],
      "name": "addAdmin",
      "outputs": [],
      "payable": false,
      "stateMutability": "nonpayable",
      "type": "function"
    },
    {
      "constant": true,
      "inputs": [
        {
          "name": "username",
          "type": "string"
        },
        {
          "name": "password",
          "type": "string"
        }
      ],
      "name": "verifyAdmin",
      "outputs": [
        {
          "name": "",
          "type": "bool"
        }
      ],
      "payable": false,
      "stateMutability": "view",
      "type": "function"
    },
    {
      "constant": false,
      "inputs": [
        {
          "name": "candidateId",
          "type": "uint256"
        }
      ],
      "name": "addCandidate",
      "outputs": [],
      "payable": false,
      "stateMutability": "nonpayable",
      "type": "function"
    },
    {
      "constant": false,
      "inputs": [
        {
          "name": "_candidateId",
          "type": "uint256"
        },
        {
          "name": "aadhaarNo",
          "type": "uint256"
        }
      ],
      "name": "vote",
      "outputs": [],
      "payable": false,
      "stateMutability": "nonpayable",
      "type": "function"
    },
    {
      "constant": true,
      "inputs": [
        {
          "name": "_candidateId",
          "type": "uint256"
        }
      ],
      "name": "returnVoteCount",
      "outputs": [
        {
          "name": "",
          "type": "uint256"
        }
      ],
      "payable": false,
      "stateMutability": "view",
      "type": "function"
    }
  ],
  "bytecode": "0x608060405234801561001057600080fd5b50610e28806100206000396000f3fe6080604052600436106100af576000357c0100000000000000000000000000000000000000000000000000000000900463ffffffff16806312b0f391146100b45780631f459041146101075780633e4744b6146102665780636fcf1c7d1461031a578063b384abef14610491578063bc377168146104d6578063c23e1035146105a8578063cacead401461065c578063df2d5ec71461072e578063df3a996314610784578063e844d097146107d3575b600080fd5b3480156100c057600080fd5b506100ed600480360360208110156100d757600080fd5b810190808035906020019092919050505061080e565b604051808215151515815260200191505060405180910390f35b34801561011357600080fd5b506102646004803603604081101561012a57600080fd5b810190808035906020019064010000000081111561014757600080fd5b82018360208201111561015957600080fd5b8035906020019184600183028401116401000000008311171561017b57600080fd5b91908080601f016020809104026020016040519081016040528093929190818152602001838380828437600081840152601f19601f820116905080830192505050505050509192919290803590602001906401000000008111156101de57600080fd5b8201836020820111156101f057600080fd5b8035906020019184600183028401116401000000008311171561021257600080fd5b91908080601f016020809104026020016040519081016040528093929190818152602001838380828437600081840152601f19601f82011690508083019250505050505050919291929050505061082e565b005b34801561027257600080fd5b5061029f6004803603602081101561028957600080fd5b8101908080359060200190929190505050610915565b6040518080602001828103825283818151815260200191508051906020019080838360005b838110156102df5780820151818401526020810190506102c4565b50505050905090810190601f16801561030c5780820380516001836020036101000a031916815260200191505b509250505060405180910390f35b34801561032657600080fd5b506104776004803603604081101561033d57600080fd5b810190808035906020019064010000000081111561035a57600080fd5b82018360208201111561036c57600080fd5b8035906020019184600183028401116401000000008311171561038e57600080fd5b91908080601f016020809104026020016040519081016040528093929190818152602001838380828437600081840152601f19601f820116905080830192505050505050509192919290803590602001906401000000008111156103f157600080fd5b82018360208201111561040357600080fd5b8035906020019184600183028401116401000000008311171561042557600080fd5b91908080601f016020809104026020016040519081016040528093929190818152602001838380828437600081840152601f19601f8201169050808301925050505050505091929192905050506109c5565b604051808215151515815260200191505060405180910390f35b34801561049d57600080fd5b506104d4600480360360408110156104b457600080fd5b810190808035906020019092919080359060200190929190505050610abb565b005b3480156104e257600080fd5b506105a6600480360360408110156104f957600080fd5b81019080803590602001909291908035906020019064010000000081111561052057600080fd5b82018360208201111561053257600080fd5b8035906020019184600183028401116401000000008311171561055457600080fd5b91908080601f016020809104026020016040519081016040528093929190818152602001838380828437600081840152601f19601f820116905080830192505050505050509192919290505050610ba4565b005b3480156105b457600080fd5b506105e1600480360360208110156105cb57600080fd5b8101908080359060200190929190505050610bd0565b6040518080602001828103825283818151815260200191508051906020019080838360005b83811015610621578082015181840152602081019050610606565b50505050905090810190601f16801561064e5780820380516001836020036101000a031916815260200191505b509250505060405180910390f35b34801561066857600080fd5b5061072c6004803603604081101561067f57600080fd5b8101908080359060200190929190803590602001906401000000008111156106a657600080fd5b8201836020820111156106b857600080fd5b803590602001918460018302840111640100000000831117156106da57600080fd5b91908080601f016020809104026020016040519081016040528093929190818152602001838380828437600081840152601f19601f820116905080830192505050505050509192919290505050610c80565b005b34801561073a57600080fd5b506107676004803603602081101561075157600080fd5b8101908080359060200190929190505050610cac565b604051808381526020018281526020019250505060405180910390f35b34801561079057600080fd5b506107bd600480360360208110156107a757600080fd5b8101908080359060200190929190505050610cd0565b6040518082815260200191505060405180910390f35b3480156107df57600080fd5b5061080c600480360360208110156107f657600080fd5b8101908080359060200190929190505050610cef565b005b60016020528060005260406000206000915054906101000a900460ff1681565b806040516020018082805190602001908083835b6020831015156108675780518252602082019150602081019050602083039250610842565b6001836020036101000a038019825116818451168082178552505050505050905001915050604051602081830303815290604052805190602001206002836040518082805190602001908083835b6020831015156108da57805182526020820191506020810190506020830392506108b5565b6001836020036101000a0380198251168184511680821785525050505050509050019150509081526020016040518091039020819055505050565b60046020528060005260406000206000915090508054600181600116156101000203166002900480601f0160208091040260200160405190810160405280929190818152602001828054600181600116156101000203166002900480156109bd5780601f10610992576101008083540402835291602001916109bd565b820191906000526020600020905b8154815290600101906020018083116109a057829003601f168201915b505050505081565b6000806002846040518082805190602001908083835b602083101515610a0057805182526020820191506020810190506020830392506109db565b6001836020036101000a03801982511681845116808217855250505050505090500191505090815260200160405180910390205490506000836040516020018082805190602001908083835b602083101515610a715780518252602082019150602081019050602083039250610a4c565b6001836020036101000a0380198251168184511680821785525050505050509050019150506040516020818303038152906040528051906020012090508082149250505092915050565b6001600082815260200190815260200160002060009054906101000a900460ff16151515610b51576040517f08c379a000000000000000000000000000000000000000000000000000000000815260040180806020018281038252600f8152602001807f566f7465722068617320766f746564000000000000000000000000000000000081525060200191505060405180910390fd5b600180600083815260200190815260200160002060006101000a81548160ff0219169083151502179055506001600080848152602001908152602001600020600101600082825401925050819055505050565b80600360008481526020019081526020016000209080519060200190610bcb929190610d3d565b505050565b60036020528060005260406000206000915090508054600181600116156101000203166002900480601f016020809104026020016040519081016040528092919081815260200182805460018160011615610100020316600290048015610c785780601f10610c4d57610100808354040283529160200191610c78565b820191906000526020600020905b815481529060010190602001808311610c5b57829003601f168201915b505050505081565b80600460008481526020019081526020016000209080519060200190610ca7929190610d3d565b505050565b60006020528060005260406000206000915090508060000154908060010154905082565b6000806000838152602001908152602001600020600101549050919050565b610cf7610dbd565b6040805190810160405280838152602001600081525090508060008084815260200190815260200160002060008201518160000155602082015181600101559050505050565b828054600181600116156101000203166002900490600052602060002090601f016020900481019282601f10610d7e57805160ff1916838001178555610dac565b82800160010185558215610dac579182015b82811115610dab578251825591602001919060010190610d90565b5b509050610db99190610dd7565b5090565b604080519081016040528060008152602001600081525090565b610df991905b80821115610df5576000816000905550600101610ddd565b5090565b9056fea165627a7a72305820203d8011a8c8ad63cadfb187b0646bbbd64a3ad5dd8dc4e937b91e6e24a3d54e0029",
  "source": "pragma solidity ^0.5.0;\n\ncontract IndianElection {\n    struct Candidate {\n        uint256 candidateId;\n        uint256 candidateVoteCount;\n    }\n\n    mapping(uint256 => Candidate) public candidatesList;\n    mapping(uint256 => bool) public voterEntry;\n    mapping(string => bytes32) adminCredentials;\n\n    mapping(uint256 => string) public constituencyFileHash;\n    mapping(uint256 => string) public voterListHash;\n\n    // Set constituency file hash\n    function setConstituencyFileHash(uint256 constId, string memory fileHash)\n        public\n    {\n        constituencyFileHash[constId] = fileHash;\n    }\n\n    // Set voter list file hashes\n    function setVoterListFileHash(uint256 constId, string memory fileHash)\n        public\n    {\n        voterListHash[constId] = fileHash;\n    }\n\n    function addAdmin(string memory username, string memory password) public {\n        adminCredentials[username] = keccak256(abi.encodePacked(password));\n    }\n\n    function verifyAdmin(string memory username, string memory password)\n        public\n        view\n        returns (bool)\n    {\n        bytes32 stored = adminCredentials[username];\n        bytes32 given = keccak256(abi.encodePacked(password));\n        return stored == given;\n    }\n\n    function addCandidate(uint256 candidateId) public {\n        Candidate memory ElectionCandidate = Candidate(candidateId, 0);\n        candidatesList[candidateId] = ElectionCandidate;\n    }\n\n    function vote(uint256 _candidateId, uint256 aadhaarNo) public {\n        require(!voterEntry[aadhaarNo], \"Voter has voted\");\n\n        voterEntry[aadhaarNo] = true;\n        candidatesList[_candidateId].candidateVoteCount += 1;\n    }\n\n    function returnVoteCount(uint256 _candidateId)\n        public\n        view\n        returns (uint256)\n    {\n        return candidatesList[_candidateId].candidateVoteCount;\n    }\n}\n",
  "sourcePath": "/home/rithvik/PESU/Codefundo/Round2/Codefundo_2019/contracts/IndianElection.sol",
  "compiler": {
    "name": "solc",
    "version": "0.5.0+commit.1d4f565a.Emscripten.clang"
  },
  "schemaVersion": "3.0.11",
  "updatedAt": "2020-02-07T19:35:05.576Z",
  "devdoc": {
    "methods": {}
  },
  "userdoc": {
    "methods": {}
  }
}